{
  "_format": "hh-sol-artifact-1",
  "contractName": "CommitmentContract",
  "sourceName": "contracts/Commitment.sol",
  "abi": [
    {
      "inputs": [],
      "stateMutability": "nonpayable",
      "type": "constructor"
    },
    {
      "anonymous": false,
      "inputs": [
        {
          "indexed": true,
          "internalType": "uint256",
          "name": "id",
          "type": "uint256"
        }
      ],
      "name": "CommitmentCancelled",
      "type": "event"
    },
    {
      "anonymous": false,
      "inputs": [
        {
          "indexed": true,
          "internalType": "uint256",
          "name": "id",
          "type": "uint256"
        },
        {
          "indexed": true,
          "internalType": "address",
          "name": "author",
          "type": "address"
        },
        {
          "indexed": false,
          "internalType": "string",
          "name": "title",
          "type": "string"
        }
      ],
      "name": "CommitmentCreated",
      "type": "event"
    },
    {
      "anonymous": false,
      "inputs": [
        {
          "indexed": true,
          "internalType": "uint256",
          "name": "id",
          "type": "uint256"
        },
        {
          "indexed": true,
          "internalType": "address",
          "name": "author",
          "type": "address"
        }
      ],
      "name": "CommitmentSuccess",
      "type": "event"
    },
    {
      "anonymous": false,
      "inputs": [
        {
          "indexed": true,
          "internalType": "uint256",
          "name": "id",
          "type": "uint256"
        },
        {
          "indexed": true,
          "internalType": "address",
          "name": "author",
          "type": "address"
        },
        {
          "indexed": false,
          "internalType": "enum CommitmentContract.CommitmentStatus",
          "name": "status",
          "type": "uint8"
        }
      ],
      "name": "CommitmentUpdated",
      "type": "event"
    },
    {
      "anonymous": false,
      "inputs": [
        {
          "indexed": true,
          "internalType": "uint256",
          "name": "id",
          "type": "uint256"
        },
        {
          "indexed": true,
          "internalType": "address",
          "name": "voter",
          "type": "address"
        },
        {
          "indexed": false,
          "internalType": "bool",
          "name": "voteFor",
          "type": "bool"
        }
      ],
      "name": "VoteCasted",
      "type": "event"
    },
    {
      "inputs": [],
      "name": "_owner",
      "outputs": [
        {
          "internalType": "address",
          "name": "",
          "type": "address"
        }
      ],
      "stateMutability": "view",
      "type": "function"
    },
    {
      "inputs": [
        {
          "internalType": "uint256",
          "name": "_id",
          "type": "uint256"
        }
      ],
      "name": "cancelCommitment",
      "outputs": [],
      "stateMutability": "nonpayable",
      "type": "function"
    },
    {
      "inputs": [
        {
          "internalType": "uint256",
          "name": "",
          "type": "uint256"
        }
      ],
      "name": "commitmentIds",
      "outputs": [
        {
          "internalType": "uint256",
          "name": "",
          "type": "uint256"
        }
      ],
      "stateMutability": "view",
      "type": "function"
    },
    {
      "inputs": [
        {
          "internalType": "uint256",
          "name": "",
          "type": "uint256"
        }
      ],
      "name": "commitments",
      "outputs": [
        {
          "internalType": "uint256",
          "name": "id",
          "type": "uint256"
        },
        {
          "internalType": "address",
          "name": "author",
          "type": "address"
        },
        {
          "internalType": "string",
          "name": "title",
          "type": "string"
        },
        {
          "internalType": "string",
          "name": "description",
          "type": "string"
        },
        {
          "internalType": "string",
          "name": "image",
          "type": "string"
        },
        {
          "internalType": "enum CommitmentContract.CommitmentStatus",
          "name": "status",
          "type": "uint8"
        },
        {
          "internalType": "uint256",
          "name": "endDate",
          "type": "uint256"
        },
        {
          "internalType": "uint256",
          "name": "createdAt",
          "type": "uint256"
        },
        {
          "internalType": "uint256",
          "name": "updatedAt",
          "type": "uint256"
        },
        {
          "internalType": "uint256",
          "name": "votesFor",
          "type": "uint256"
        },
        {
          "internalType": "uint256",
          "name": "votesAgainst",
          "type": "uint256"
        }
      ],
      "stateMutability": "view",
      "type": "function"
    },
    {
      "inputs": [
        {
          "internalType": "address",
          "name": "_address",
          "type": "address"
        },
        {
          "internalType": "string",
          "name": "_title",
          "type": "string"
        },
        {
          "internalType": "string",
          "name": "_description",
          "type": "string"
        },
        {
          "internalType": "string",
          "name": "_image",
          "type": "string"
        },
        {
          "internalType": "uint256",
          "name": "_endDate",
          "type": "uint256"
        }
      ],
      "name": "createCommitment",
      "outputs": [],
      "stateMutability": "nonpayable",
      "type": "function"
    },
    {
      "inputs": [],
      "name": "executeDailyJob",
      "outputs": [
        {
          "internalType": "uint256[]",
          "name": "",
          "type": "uint256[]"
        }
      ],
      "stateMutability": "nonpayable",
      "type": "function"
    },
    {
      "inputs": [
        {
          "internalType": "uint256",
          "name": "_commitmentId",
          "type": "uint256"
        }
      ],
      "name": "getCommitmentAuthor",
      "outputs": [
        {
          "internalType": "address",
          "name": "",
          "type": "address"
        }
      ],
      "stateMutability": "view",
      "type": "function"
    },
    {
      "inputs": [
        {
          "internalType": "uint256",
          "name": "_commitmentId",
          "type": "uint256"
        }
      ],
      "name": "getCommitmentStatus",
      "outputs": [
        {
          "internalType": "enum CommitmentContract.CommitmentStatus",
          "name": "",
          "type": "uint8"
        }
      ],
      "stateMutability": "view",
      "type": "function"
    },
    {
      "inputs": [
        {
          "internalType": "uint256",
          "name": "_commitmentId",
          "type": "uint256"
        }
      ],
      "name": "getCommitmentStatusBool",
      "outputs": [
        {
          "internalType": "bool",
          "name": "",
          "type": "bool"
        }
      ],
      "stateMutability": "view",
      "type": "function"
    },
    {
      "inputs": [
        {
          "internalType": "uint256[]",
          "name": "_commitmentIds",
          "type": "uint256[]"
        }
      ],
      "name": "getSuccessfulCommitmentAuthors",
      "outputs": [
        {
          "internalType": "address[]",
          "name": "",
          "type": "address[]"
        }
      ],
      "stateMutability": "view",
      "type": "function"
    },
    {
      "inputs": [
        {
          "internalType": "uint256",
          "name": "_commitmentId",
          "type": "uint256"
        },
        {
          "internalType": "bool",
          "name": "_voteFor",
          "type": "bool"
        }
      ],
      "name": "getVotersByVote",
      "outputs": [
        {
          "internalType": "address[]",
          "name": "",
          "type": "address[]"
        }
      ],
      "stateMutability": "view",
      "type": "function"
    },
    {
      "inputs": [],
      "name": "nextCommitmentId",
      "outputs": [
        {
          "internalType": "uint256",
          "name": "",
          "type": "uint256"
        }
      ],
      "stateMutability": "view",
      "type": "function"
    },
    {
      "inputs": [
        {
          "internalType": "address",
          "name": "_PAGAContractAddress",
          "type": "address"
        }
      ],
      "name": "setPagaContract",
      "outputs": [],
      "stateMutability": "nonpayable",
      "type": "function"
    },
    {
      "inputs": [
        {
          "internalType": "address",
          "name": "voter",
          "type": "address"
        },
        {
          "internalType": "uint256",
          "name": "_commitmentID",
          "type": "uint256"
        },
        {
          "internalType": "bool",
          "name": "_voteFor",
          "type": "bool"
        }
      ],
      "name": "voteOnCommitment",
      "outputs": [],
      "stateMutability": "nonpayable",
      "type": "function"
    }
  ],
  "bytecode": "0x6080604052348015600f57600080fd5b50336000806101000a81548173ffffffffffffffffffffffffffffffffffffffff021916908373ffffffffffffffffffffffffffffffffffffffff16021790555061259c8061005f6000396000f3fe608060405234801561001057600080fd5b50600436106100ea5760003560e01c8063b2bdfa7b1161008c578063c59a18f711610066578063c59a18f714610267578063cea7fa4e14610297578063dde56f1a146102b3578063e3ea3be5146102e3576100ea565b8063b2bdfa7b14610211578063bb8a3bb81461022f578063c4a6147b1461024b576100ea565b8063592d1cdc116100c8578063592d1cdc146101895780635ac48e6d146101a7578063840a1ff4146101c5578063ad9042dc146101e1576100ea565b8063035060e9146100ef5780633e07d0591461011f57806349ce89971461014f575b600080fd5b61010960048036038101906101049190611620565b610313565b6040516101169190611750565b60405180910390f35b61013960048036038101906101349190611772565b6105a6565b60405161014691906117ae565b60405180910390f35b61016960048036038101906101649190611772565b6105e6565b6040516101809b9a999897969594939291906118df565b60405180910390f35b610191610805565b60405161019e9190611a5d565b60405180910390f35b6101af6109d6565b6040516101bc9190611a7f565b60405180910390f35b6101df60048036038101906101da9190611772565b6109dc565b005b6101fb60048036038101906101f69190611772565b610b64565b6040516102089190611aa9565b60405180910390f35b610219610bb8565b60405161022691906117ae565b60405180910390f35b61024960048036038101906102449190611c25565b610bdc565b005b61026560048036038101906102609190611cf4565b610de9565b005b610281600480360381019061027c9190611772565b610ebe565b60405161028e9190611a7f565b60405180910390f35b6102b160048036038101906102ac9190611d21565b610ee2565b005b6102cd60048036038101906102c89190611772565b6111e3565b6040516102da9190611d74565b60405180910390f35b6102fd60048036038101906102f89190611e57565b611210565b60405161030a9190611750565b60405180910390f35b606060006002600085815260200190815260200160002090506000805b82600c01805490508110156103f45784151583600b01600085600c01848154811061035e5761035d611ea0565b5b9060005260206000200160009054906101000a900473ffffffffffffffffffffffffffffffffffffffff1673ffffffffffffffffffffffffffffffffffffffff1673ffffffffffffffffffffffffffffffffffffffff16815260200190815260200160002060009054906101000a900460ff161515036103e75781806103e390611efe565b9250505b8080600101915050610330565b5060008167ffffffffffffffff81111561041157610410611afa565b5b60405190808252806020026020018201604052801561043f5781602001602082028036833780820191505090505b5090506000805b84600c01805490508110156105985786151585600b01600087600c01848154811061047457610473611ea0565b5b9060005260206000200160009054906101000a900473ffffffffffffffffffffffffffffffffffffffff1673ffffffffffffffffffffffffffffffffffffffff1673ffffffffffffffffffffffffffffffffffffffff16815260200190815260200160002060009054906101000a900460ff1615150361058b5784600c01818154811061050457610503611ea0565b5b9060005260206000200160009054906101000a900473ffffffffffffffffffffffffffffffffffffffff1683838151811061054257610541611ea0565b5b602002602001019073ffffffffffffffffffffffffffffffffffffffff16908173ffffffffffffffffffffffffffffffffffffffff1681525050818061058790611efe565b9250505b8080600101915050610446565b508194505050505092915050565b60006002600083815260200190815260200160002060010160009054906101000a900473ffffffffffffffffffffffffffffffffffffffff169050919050565b60026020528060005260406000206000915090508060000154908060010160009054906101000a900473ffffffffffffffffffffffffffffffffffffffff169080600201805461063590611f75565b80601f016020809104026020016040519081016040528092919081815260200182805461066190611f75565b80156106ae5780601f10610683576101008083540402835291602001916106ae565b820191906000526020600020905b81548152906001019060200180831161069157829003601f168201915b5050505050908060030180546106c390611f75565b80601f01602080910402602001604051908101604052809291908181526020018280546106ef90611f75565b801561073c5780601f106107115761010080835404028352916020019161073c565b820191906000526020600020905b81548152906001019060200180831161071f57829003601f168201915b50505050509080600401805461075190611f75565b80601f016020809104026020016040519081016040528092919081815260200182805461077d90611f75565b80156107ca5780601f1061079f576101008083540402835291602001916107ca565b820191906000526020600020905b8154815290600101906020018083116107ad57829003601f168201915b5050505050908060050160009054906101000a900460ff169080600601549080600701549080600801549080600901549080600a015490508b565b6060600160009054906101000a900473ffffffffffffffffffffffffffffffffffffffff1673ffffffffffffffffffffffffffffffffffffffff163373ffffffffffffffffffffffffffffffffffffffff1614610897576040517f08c379a000000000000000000000000000000000000000000000000000000000815260040161088e90611ff2565b60405180910390fd5b600060048054905067ffffffffffffffff8111156108b8576108b7611afa565b5b6040519080825280602002602001820160405280156108e65781602001602082028036833780820191505090505b5090506000805b6004805490508110156109cd576000600482815481106109105761090f611ea0565b5b90600052602060002001549050600060026000838152602001908152602001600020905042816006015410801561097c57506000600381111561095657610955611868565b5b8160050160009054906101000a900460ff16600381111561097a57610979611868565b5b145b156109be5761098a8261142e565b5080600001548585815181106109a3576109a2611ea0565b5b60200260200101818152505083806109ba90611efe565b9450505b505080806001019150506108ed565b50819250505090565b60035481565b60006002600083815260200190815260200160002090503373ffffffffffffffffffffffffffffffffffffffff168160010160009054906101000a900473ffffffffffffffffffffffffffffffffffffffff1673ffffffffffffffffffffffffffffffffffffffff1614610a85576040517f08c379a0000000000000000000000000000000000000000000000000000000008152600401610a7c90612084565b60405180910390fd5b60016003811115610a9957610a98611868565b5b8160050160009054906101000a900460ff166003811115610abd57610abc611868565b5b03610afd576040517f08c379a0000000000000000000000000000000000000000000000000000000008152600401610af490612116565b60405180910390fd5b60038160050160006101000a81548160ff02191690836003811115610b2557610b24611868565b5b0217905550428160080181905550817f07f971ad2fb43cf766f3d1baa91b15fbd2bd5b0a14701da5104e912939ab91b860405160405180910390a25050565b600060016003811115610b7a57610b79611868565b5b6002600084815260200190815260200160002060050160009054906101000a900460ff166003811115610bb057610baf611868565b5b149050919050565b60008054906101000a900473ffffffffffffffffffffffffffffffffffffffff1681565b600160009054906101000a900473ffffffffffffffffffffffffffffffffffffffff1673ffffffffffffffffffffffffffffffffffffffff163373ffffffffffffffffffffffffffffffffffffffff1614610c6c576040517f08c379a0000000000000000000000000000000000000000000000000000000008152600401610c6390611ff2565b60405180910390fd5b600060036000815480929190610c8190611efe565b9190505590506000600260008381526020019081526020016000209050818160000181905550868160010160006101000a81548173ffffffffffffffffffffffffffffffffffffffff021916908373ffffffffffffffffffffffffffffffffffffffff16021790555085816002019081610cfb91906122e2565b5084816003019081610d0d91906122e2565b5083816004019081610d1f91906122e2565b5060008160050160006101000a81548160ff02191690836003811115610d4857610d47611868565b5b021790555082816006018190555042816007018190555042816008018190555060048290806001815401808255809150506001900390600052602060002001600090919091909150553373ffffffffffffffffffffffffffffffffffffffff16827ffa99a653c4373b4e353c68118639a54b493260f42326788c4cbcc6742d56ac2888604051610dd891906123b4565b60405180910390a350505050505050565b600073ffffffffffffffffffffffffffffffffffffffff16600160009054906101000a900473ffffffffffffffffffffffffffffffffffffffff1673ffffffffffffffffffffffffffffffffffffffff1614610e7a576040517f08c379a0000000000000000000000000000000000000000000000000000000008152600401610e7190612422565b60405180910390fd5b80600160006101000a81548173ffffffffffffffffffffffffffffffffffffffff021916908373ffffffffffffffffffffffffffffffffffffffff16021790555050565b60048181548110610ece57600080fd5b906000526020600020016000915090505481565b600160009054906101000a900473ffffffffffffffffffffffffffffffffffffffff1673ffffffffffffffffffffffffffffffffffffffff163373ffffffffffffffffffffffffffffffffffffffff1614610f72576040517f08c379a0000000000000000000000000000000000000000000000000000000008152600401610f6990611ff2565b60405180910390fd5b600060026000848152602001908152602001600020905080600b0160008573ffffffffffffffffffffffffffffffffffffffff1673ffffffffffffffffffffffffffffffffffffffff16815260200190815260200160002060009054906101000a900460ff1615611018576040517f08c379a000000000000000000000000000000000000000000000000000000000815260040161100f906124b4565b60405180910390fd5b6000600381111561102c5761102b611868565b5b8160050160009054906101000a900460ff1660038111156110505761104f611868565b5b14611090576040517f08c379a000000000000000000000000000000000000000000000000000000000815260040161108790612546565b60405180910390fd5b8181600b0160008673ffffffffffffffffffffffffffffffffffffffff1673ffffffffffffffffffffffffffffffffffffffff16815260200190815260200160002060006101000a81548160ff02191690831515021790555080600c01849080600181540180825580915050600190039060005260206000200160009091909190916101000a81548173ffffffffffffffffffffffffffffffffffffffff021916908373ffffffffffffffffffffffffffffffffffffffff16021790555081156111735780600901600081548092919061116990611efe565b919050555061118e565b80600a01600081548092919061118890611efe565b91905055505b8373ffffffffffffffffffffffffffffffffffffffff16837f5aaa9aad7433112662b9e5ae23b96ed62b00035f413ab908c55607284e0804e2846040516111d59190611aa9565b60405180910390a350505050565b60006002600083815260200190815260200160002060050160009054906101000a900460ff169050919050565b60606000805b83518110156112a4576001600381111561123357611232611868565b5b6002600086848151811061124a57611249611ea0565b5b6020026020010151815260200190815260200160002060050160009054906101000a900460ff16600381111561128357611282611868565b5b0361129757818061129390611efe565b9250505b8080600101915050611216565b5060008167ffffffffffffffff8111156112c1576112c0611afa565b5b6040519080825280602002602001820160405280156112ef5781602001602082028036833780820191505090505b5090506000805b8551811015611422576001600381111561131357611312611868565b5b6002600088848151811061132a57611329611ea0565b5b6020026020010151815260200190815260200160002060050160009054906101000a900460ff16600381111561136357611362611868565b5b03611415576002600087838151811061137f5761137e611ea0565b5b6020026020010151815260200190815260200160002060010160009054906101000a900473ffffffffffffffffffffffffffffffffffffffff168383815181106113cc576113cb611ea0565b5b602002602001019073ffffffffffffffffffffffffffffffffffffffff16908173ffffffffffffffffffffffffffffffffffffffff1681525050818061141190611efe565b9250505b80806001019150506112f6565b50819350505050919050565b60008060026000848152602001908152602001600020905080600a0154816009015411156114fe5760018160050160006101000a81548160ff0219169083600381111561147e5761147d611868565b5b02179055504281600801819055508060010160009054906101000a900473ffffffffffffffffffffffffffffffffffffffff1673ffffffffffffffffffffffffffffffffffffffff16837fcf2d0e285bec7ddef8598a19875582b50acc4777117f7fe5d1718e59811761be60405160405180910390a36001915050611599565b60028160050160006101000a81548160ff0219169083600381111561152657611525611868565b5b02179055508060010160009054906101000a900473ffffffffffffffffffffffffffffffffffffffff1673ffffffffffffffffffffffffffffffffffffffff16837fcf2d0e285bec7ddef8598a19875582b50acc4777117f7fe5d1718e59811761be60405160405180910390a360009150505b919050565b6000604051905090565b600080fd5b600080fd5b6000819050919050565b6115c5816115b2565b81146115d057600080fd5b50565b6000813590506115e2816115bc565b92915050565b60008115159050919050565b6115fd816115e8565b811461160857600080fd5b50565b60008135905061161a816115f4565b92915050565b60008060408385031215611637576116366115a8565b5b6000611645858286016115d3565b92505060206116568582860161160b565b9150509250929050565b600081519050919050565b600082825260208201905092915050565b6000819050602082019050919050565b600073ffffffffffffffffffffffffffffffffffffffff82169050919050565b60006116b78261168c565b9050919050565b6116c7816116ac565b82525050565b60006116d983836116be565b60208301905092915050565b6000602082019050919050565b60006116fd82611660565b611707818561166b565b93506117128361167c565b8060005b8381101561174357815161172a88826116cd565b9750611735836116e5565b925050600181019050611716565b5085935050505092915050565b6000602082019050818103600083015261176a81846116f2565b905092915050565b600060208284031215611788576117876115a8565b5b6000611796848285016115d3565b91505092915050565b6117a8816116ac565b82525050565b60006020820190506117c3600083018461179f565b92915050565b6117d2816115b2565b82525050565b600081519050919050565b600082825260208201905092915050565b60005b838110156118125780820151818401526020810190506117f7565b60008484015250505050565b6000601f19601f8301169050919050565b600061183a826117d8565b61184481856117e3565b93506118548185602086016117f4565b61185d8161181e565b840191505092915050565b7f4e487b7100000000000000000000000000000000000000000000000000000000600052602160045260246000fd5b600481106118a8576118a7611868565b5b50565b60008190506118b982611897565b919050565b60006118c9826118ab565b9050919050565b6118d9816118be565b82525050565b6000610160820190506118f5600083018e6117c9565b611902602083018d61179f565b8181036040830152611914818c61182f565b90508181036060830152611928818b61182f565b9050818103608083015261193c818a61182f565b905061194b60a08301896118d0565b61195860c08301886117c9565b61196560e08301876117c9565b6119736101008301866117c9565b6119816101208301856117c9565b61198f6101408301846117c9565b9c9b505050505050505050505050565b600081519050919050565b600082825260208201905092915050565b6000819050602082019050919050565b6119d4816115b2565b82525050565b60006119e683836119cb565b60208301905092915050565b6000602082019050919050565b6000611a0a8261199f565b611a1481856119aa565b9350611a1f836119bb565b8060005b83811015611a50578151611a3788826119da565b9750611a42836119f2565b925050600181019050611a23565b5085935050505092915050565b60006020820190508181036000830152611a7781846119ff565b905092915050565b6000602082019050611a9460008301846117c9565b92915050565b611aa3816115e8565b82525050565b6000602082019050611abe6000830184611a9a565b92915050565b611acd816116ac565b8114611ad857600080fd5b50565b600081359050611aea81611ac4565b92915050565b600080fd5b600080fd5b7f4e487b7100000000000000000000000000000000000000000000000000000000600052604160045260246000fd5b611b328261181e565b810181811067ffffffffffffffff82111715611b5157611b50611afa565b5b80604052505050565b6000611b6461159e565b9050611b708282611b29565b919050565b600067ffffffffffffffff821115611b9057611b8f611afa565b5b611b998261181e565b9050602081019050919050565b82818337600083830152505050565b6000611bc8611bc384611b75565b611b5a565b905082815260208101848484011115611be457611be3611af5565b5b611bef848285611ba6565b509392505050565b600082601f830112611c0c57611c0b611af0565b5b8135611c1c848260208601611bb5565b91505092915050565b600080600080600060a08688031215611c4157611c406115a8565b5b6000611c4f88828901611adb565b955050602086013567ffffffffffffffff811115611c7057611c6f6115ad565b5b611c7c88828901611bf7565b945050604086013567ffffffffffffffff811115611c9d57611c9c6115ad565b5b611ca988828901611bf7565b935050606086013567ffffffffffffffff811115611cca57611cc96115ad565b5b611cd688828901611bf7565b9250506080611ce7888289016115d3565b9150509295509295909350565b600060208284031215611d0a57611d096115a8565b5b6000611d1884828501611adb565b91505092915050565b600080600060608486031215611d3a57611d396115a8565b5b6000611d4886828701611adb565b9350506020611d59868287016115d3565b9250506040611d6a8682870161160b565b9150509250925092565b6000602082019050611d8960008301846118d0565b92915050565b600067ffffffffffffffff821115611daa57611da9611afa565b5b602082029050602081019050919050565b600080fd5b6000611dd3611dce84611d8f565b611b5a565b90508083825260208201905060208402830185811115611df657611df5611dbb565b5b835b81811015611e1f5780611e0b88826115d3565b845260208401935050602081019050611df8565b5050509392505050565b600082601f830112611e3e57611e3d611af0565b5b8135611e4e848260208601611dc0565b91505092915050565b600060208284031215611e6d57611e6c6115a8565b5b600082013567ffffffffffffffff811115611e8b57611e8a6115ad565b5b611e9784828501611e29565b91505092915050565b7f4e487b7100000000000000000000000000000000000000000000000000000000600052603260045260246000fd5b7f4e487b7100000000000000000000000000000000000000000000000000000000600052601160045260246000fd5b6000611f09826115b2565b91507fffffffffffffffffffffffffffffffffffffffffffffffffffffffffffffffff8203611f3b57611f3a611ecf565b5b600182019050919050565b7f4e487b7100000000000000000000000000000000000000000000000000000000600052602260045260246000fd5b60006002820490506001821680611f8d57607f821691505b602082108103611fa057611f9f611f46565b5b50919050565b7f43616c6c6572206973206e6f7420746865205041474120636f6e747261637400600082015250565b6000611fdc601f836117e3565b9150611fe782611fa6565b602082019050919050565b6000602082019050818103600083015261200b81611fcf565b9050919050565b7f4f6e6c792074686520617574686f722063616e2063616e63656c20746865206360008201527f6f6d6d69746d656e740000000000000000000000000000000000000000000000602082015250565b600061206e6029836117e3565b915061207982612012565b604082019050919050565b6000602082019050818103600083015261209d81612061565b9050919050565b7f43616e6e6f742063616e63656c20612066756c66696c6c656420636f6d6d697460008201527f6d656e7400000000000000000000000000000000000000000000000000000000602082015250565b60006121006024836117e3565b915061210b826120a4565b604082019050919050565b6000602082019050818103600083015261212f816120f3565b9050919050565b60008190508160005260206000209050919050565b60006020601f8301049050919050565b600082821b905092915050565b6000600883026121987fffffffffffffffffffffffffffffffffffffffffffffffffffffffffffffffff8261215b565b6121a2868361215b565b95508019841693508086168417925050509392505050565b6000819050919050565b60006121df6121da6121d5846115b2565b6121ba565b6115b2565b9050919050565b6000819050919050565b6121f9836121c4565b61220d612205826121e6565b848454612168565b825550505050565b600090565b612222612215565b61222d8184846121f0565b505050565b5b818110156122515761224660008261221a565b600181019050612233565b5050565b601f8211156122965761226781612136565b6122708461214b565b8101602085101561227f578190505b61229361228b8561214b565b830182612232565b50505b505050565b600082821c905092915050565b60006122b96000198460080261229b565b1980831691505092915050565b60006122d283836122a8565b9150826002028217905092915050565b6122eb826117d8565b67ffffffffffffffff81111561230457612303611afa565b5b61230e8254611f75565b612319828285612255565b600060209050601f83116001811461234c576000841561233a578287015190505b61234485826122c6565b8655506123ac565b601f19841661235a86612136565b60005b828110156123825784890151825560018201915060208501945060208101905061235d565b8683101561239f578489015161239b601f8916826122a8565b8355505b6001600288020188555050505b505050505050565b600060208201905081810360008301526123ce818461182f565b905092915050565b7f5041474120636f6e747261637420616c72656164792073657400000000000000600082015250565b600061240c6019836117e3565b9150612417826123d6565b602082019050919050565b6000602082019050818103600083015261243b816123ff565b9050919050565b7f596f75206861766520616c726561647920766f746564206f6e2074686973206360008201527f6f6d6d69746d656e740000000000000000000000000000000000000000000000602082015250565b600061249e6029836117e3565b91506124a982612442565b604082019050919050565b600060208201905081810360008301526124cd81612491565b9050919050565b7f43616e6e6f7420766f7465206f6e206120636f6d6d69746d656e74207468617460008201527f206973206e6f742070656e64696e670000000000000000000000000000000000602082015250565b6000612530602f836117e3565b915061253b826124d4565b604082019050919050565b6000602082019050818103600083015261255f81612523565b905091905056fea2646970667358221220d8e730b05cd9ebc1920cdeee15781b8e3040f9322fbb366113e05fd8e2be1d5f64736f6c634300081c0033",
  "linkReferences": {},
  "deployedLinkReferences": {}
}