{
  "_format": "hh-sol-artifact-1",
  "contractName": "PAGAContract",
  "sourceName": "contracts/PAGA.sol",
  "abi": [
    {
      "inputs": [
        {
          "internalType": "address",
          "name": "_voterContract",
          "type": "address"
        },
        {
          "internalType": "address",
          "name": "_commitmentContract",
          "type": "address"
        },
        {
          "internalType": "address",
          "name": "_politicianContract",
          "type": "address"
        },
        {
          "internalType": "address",
          "name": "_claimContract",
          "type": "address"
        }
      ],
      "stateMutability": "nonpayable",
      "type": "constructor"
    },
    {
      "inputs": [],
      "name": "_owner",
      "outputs": [
        {
          "internalType": "address",
          "name": "",
          "type": "address"
        }
      ],
      "stateMutability": "view",
      "type": "function"
    },
    {
      "inputs": [],
      "name": "claimContract",
      "outputs": [
        {
          "internalType": "contract ClaimContract",
          "name": "",
          "type": "address"
        }
      ],
      "stateMutability": "view",
      "type": "function"
    },
    {
      "inputs": [],
      "name": "commitmentContract",
      "outputs": [
        {
          "internalType": "contract CommitmentContract",
          "name": "",
          "type": "address"
        }
      ],
      "stateMutability": "view",
      "type": "function"
    },
    {
      "inputs": [
        {
          "internalType": "address",
          "name": "toPolitician",
          "type": "address"
        },
        {
          "internalType": "string",
          "name": "_title",
          "type": "string"
        },
        {
          "internalType": "string",
          "name": "_description",
          "type": "string"
        },
        {
          "internalType": "string",
          "name": "_coverPictureURI",
          "type": "string"
        },
        {
          "internalType": "uint256",
          "name": "_investment",
          "type": "uint256"
        }
      ],
      "name": "createClaim",
      "outputs": [],
      "stateMutability": "nonpayable",
      "type": "function"
    },
    {
      "inputs": [
        {
          "internalType": "string",
          "name": "_title",
          "type": "string"
        },
        {
          "internalType": "string",
          "name": "_description",
          "type": "string"
        },
        {
          "internalType": "string",
          "name": "_image",
          "type": "string"
        },
        {
          "internalType": "uint256",
          "name": "_endDate",
          "type": "uint256"
        }
      ],
      "name": "createCommitment",
      "outputs": [],
      "stateMutability": "nonpayable",
      "type": "function"
    },
    {
      "inputs": [
        {
          "internalType": "string",
          "name": "_profilePictureURI",
          "type": "string"
        },
        {
          "internalType": "string",
          "name": "_politicianParty",
          "type": "string"
        },
        {
          "internalType": "string",
          "name": "_name",
          "type": "string"
        },
        {
          "internalType": "string",
          "name": "_politicianRole",
          "type": "string"
        }
      ],
      "name": "createPolitician",
      "outputs": [],
      "stateMutability": "nonpayable",
      "type": "function"
    },
    {
      "inputs": [],
      "name": "createVoter",
      "outputs": [],
      "stateMutability": "nonpayable",
      "type": "function"
    },
    {
      "inputs": [],
      "name": "executeDaily",
      "outputs": [],
      "stateMutability": "nonpayable",
      "type": "function"
    },
    {
      "inputs": [],
      "name": "politicianContract",
      "outputs": [
        {
          "internalType": "contract Politician",
          "name": "",
          "type": "address"
        }
      ],
      "stateMutability": "view",
      "type": "function"
    },
    {
      "inputs": [
        {
          "internalType": "address",
          "name": "politician",
          "type": "address"
        }
      ],
      "name": "registerVoter",
      "outputs": [],
      "stateMutability": "nonpayable",
      "type": "function"
    },
    {
      "inputs": [
        {
          "internalType": "uint256",
          "name": "_commitmentId",
          "type": "uint256"
        },
        {
          "internalType": "bool",
          "name": "_voteFor",
          "type": "bool"
        }
      ],
      "name": "vote",
      "outputs": [],
      "stateMutability": "nonpayable",
      "type": "function"
    },
    {
      "inputs": [],
      "name": "voterContract",
      "outputs": [
        {
          "internalType": "contract VoterContract",
          "name": "",
          "type": "address"
        }
      ],
      "stateMutability": "view",
      "type": "function"
    }
  ],
  "bytecode": "0x608060405234801561001057600080fd5b5060405161207338038061207383398181016040528101906100329190610416565b336000806101000a81548173ffffffffffffffffffffffffffffffffffffffff021916908373ffffffffffffffffffffffffffffffffffffffff16021790555083600160006101000a81548173ffffffffffffffffffffffffffffffffffffffff021916908373ffffffffffffffffffffffffffffffffffffffff16021790555082600260006101000a81548173ffffffffffffffffffffffffffffffffffffffff021916908373ffffffffffffffffffffffffffffffffffffffff16021790555081600360006101000a81548173ffffffffffffffffffffffffffffffffffffffff021916908373ffffffffffffffffffffffffffffffffffffffff16021790555080600460006101000a81548173ffffffffffffffffffffffffffffffffffffffff021916908373ffffffffffffffffffffffffffffffffffffffff160217905550600160009054906101000a900473ffffffffffffffffffffffffffffffffffffffff1673ffffffffffffffffffffffffffffffffffffffff1663c4a6147b306040518263ffffffff1660e01b81526004016101d1919061048c565b600060405180830381600087803b1580156101eb57600080fd5b505af11580156101ff573d6000803e3d6000fd5b50505050600260009054906101000a900473ffffffffffffffffffffffffffffffffffffffff1673ffffffffffffffffffffffffffffffffffffffff1663c4a6147b306040518263ffffffff1660e01b815260040161025e919061048c565b600060405180830381600087803b15801561027857600080fd5b505af115801561028c573d6000803e3d6000fd5b50505050600360009054906101000a900473ffffffffffffffffffffffffffffffffffffffff1673ffffffffffffffffffffffffffffffffffffffff1663c4a6147b306040518263ffffffff1660e01b81526004016102eb919061048c565b600060405180830381600087803b15801561030557600080fd5b505af1158015610319573d6000803e3d6000fd5b50505050600460009054906101000a900473ffffffffffffffffffffffffffffffffffffffff1673ffffffffffffffffffffffffffffffffffffffff1663c4a6147b306040518263ffffffff1660e01b8152600401610378919061048c565b600060405180830381600087803b15801561039257600080fd5b505af11580156103a6573d6000803e3d6000fd5b50505050505050506104a7565b600080fd5b600073ffffffffffffffffffffffffffffffffffffffff82169050919050565b60006103e3826103b8565b9050919050565b6103f3816103d8565b81146103fe57600080fd5b50565b600081519050610410816103ea565b92915050565b600080600080608085870312156104305761042f6103b3565b5b600061043e87828801610401565b945050602061044f87828801610401565b935050604061046087828801610401565b925050606061047187828801610401565b91505092959194509250565b610486816103d8565b82525050565b60006020820190506104a1600083018461047d565b92915050565b611bbd806104b66000396000f3fe608060405234801561001057600080fd5b50600436106100b45760003560e01c8063c602e80511610071578063c602e80514610141578063c9d27afe1461015d578063c9e714a814610179578063cb06fc5514610195578063e6610bc8146101b3578063edda1906146101d1576100b4565b806338db6dd3146100b957806360fccde8146100d557806366345da4146100df5780636c6c8c51146100fd5780637da1bd4514610107578063b2bdfa7b14610123575b600080fd5b6100d360048036038101906100ce9190610c88565b6101ef565b005b6100dd610281565b005b6100e7610310565b6040516100f49190610d14565b60405180910390f35b610105610336565b005b610121600480360381019061011c9190610e75565b610886565b005b61012b610921565b6040516101389190610f5b565b60405180910390f35b61015b60048036038101906101569190610fac565b610945565b005b6101776004803603810190610172919061109f565b6109e0565b005b610193600480360381019061018e91906110df565b610b06565b005b61019d610ba4565b6040516101aa91906111cf565b60405180910390f35b6101bb610bca565b6040516101c8919061120b565b60405180910390f35b6101d9610bf0565b6040516101e69190611247565b60405180910390f35b600160009054906101000a900473ffffffffffffffffffffffffffffffffffffffff1673ffffffffffffffffffffffffffffffffffffffff1663b5768b6433836040518363ffffffff1660e01b815260040161024c929190611262565b600060405180830381600087803b15801561026657600080fd5b505af115801561027a573d6000803e3d6000fd5b5050505050565b600160009054906101000a900473ffffffffffffffffffffffffffffffffffffffff1673ffffffffffffffffffffffffffffffffffffffff1663166a3952336040518263ffffffff1660e01b81526004016102dc9190610f5b565b600060405180830381600087803b1580156102f657600080fd5b505af115801561030a573d6000803e3d6000fd5b50505050565b600460009054906101000a900473ffffffffffffffffffffffffffffffffffffffff1681565b60008054906101000a900473ffffffffffffffffffffffffffffffffffffffff1673ffffffffffffffffffffffffffffffffffffffff163373ffffffffffffffffffffffffffffffffffffffff16146103c4576040517f08c379a00000000000000000000000000000000000000000000000000000000081526004016103bb906112e8565b60405180910390fd5b6000600260009054906101000a900473ffffffffffffffffffffffffffffffffffffffff1673ffffffffffffffffffffffffffffffffffffffff1663592d1cdc6040518163ffffffff1660e01b81526004016000604051808303816000875af1158015610435573d6000803e3d6000fd5b505050506040513d6000823e3d601f19601f8201168201806040525081019061045e91906113e5565b905060008151116104a4576040517f08c379a000000000000000000000000000000000000000000000000000000000815260040161049b9061147a565b60405180910390fd5b6000600260009054906101000a900473ffffffffffffffffffffffffffffffffffffffff1673ffffffffffffffffffffffffffffffffffffffff1663e3ea3be5836040518263ffffffff1660e01b81526004016105019190611558565b600060405180830381865afa15801561051e573d6000803e3d6000fd5b505050506040513d6000823e3d601f19601f820116820180604052508101906105479190611652565b9050600081511161058d576040517f08c379a0000000000000000000000000000000000000000000000000000000008152600401610584906116e7565b60405180910390fd5b600360009054906101000a900473ffffffffffffffffffffffffffffffffffffffff1673ffffffffffffffffffffffffffffffffffffffff16635659d6828260016040518363ffffffff1660e01b81526004016105eb929190611800565b600060405180830381600087803b15801561060557600080fd5b505af1158015610619573d6000803e3d6000fd5b5050505060005b8251811015610881576000600260009054906101000a900473ffffffffffffffffffffffffffffffffffffffff1673ffffffffffffffffffffffffffffffffffffffff1663035060e985848151811061067c5761067b611830565b5b6020026020010151600260009054906101000a900473ffffffffffffffffffffffffffffffffffffffff1673ffffffffffffffffffffffffffffffffffffffff1663ad9042dc8887815181106106d5576106d4611830565b5b60200260200101516040518263ffffffff1660e01b81526004016106f9919061186e565b602060405180830381865afa158015610716573d6000803e3d6000fd5b505050506040513d601f19601f8201168201806040525081019061073a919061189e565b6040518363ffffffff1660e01b81526004016107579291906118da565b600060405180830381865afa158015610774573d6000803e3d6000fd5b505050506040513d6000823e3d601f19601f8201168201806040525081019061079d9190611652565b905060008151116107e3576040517f08c379a00000000000000000000000000000000000000000000000000000000081526004016107da90611975565b60405180910390fd5b600160009054906101000a900473ffffffffffffffffffffffffffffffffffffffff1673ffffffffffffffffffffffffffffffffffffffff16635659d6828260016040518363ffffffff1660e01b8152600401610841929190611800565b600060405180830381600087803b15801561085b57600080fd5b505af115801561086f573d6000803e3d6000fd5b50505050508080600101915050610620565b505050565b600360009054906101000a900473ffffffffffffffffffffffffffffffffffffffff1673ffffffffffffffffffffffffffffffffffffffff16635b866c6f33868686866040518663ffffffff1660e01b81526004016108e9959493929190611a03565b600060405180830381600087803b15801561090357600080fd5b505af1158015610917573d6000803e3d6000fd5b5050505050505050565b60008054906101000a900473ffffffffffffffffffffffffffffffffffffffff1681565b600260009054906101000a900473ffffffffffffffffffffffffffffffffffffffff1673ffffffffffffffffffffffffffffffffffffffff1663bb8a3bb833868686866040518663ffffffff1660e01b81526004016109a8959493929190611a72565b600060405180830381600087803b1580156109c257600080fd5b505af11580156109d6573d6000803e3d6000fd5b5050505050505050565b600160009054906101000a900473ffffffffffffffffffffffffffffffffffffffff1673ffffffffffffffffffffffffffffffffffffffff1663cea7fa4e3384846040518463ffffffff1660e01b8152600401610a3f93929190611ada565b600060405180830381600087803b158015610a5957600080fd5b505af1158015610a6d573d6000803e3d6000fd5b50505050600260009054906101000a900473ffffffffffffffffffffffffffffffffffffffff1673ffffffffffffffffffffffffffffffffffffffff1663cea7fa4e3384846040518463ffffffff1660e01b8152600401610ad093929190611ada565b600060405180830381600087803b158015610aea57600080fd5b505af1158015610afe573d6000803e3d6000fd5b505050505050565b600460009054906101000a900473ffffffffffffffffffffffffffffffffffffffff1673ffffffffffffffffffffffffffffffffffffffff16639089ea2d3387878787876040518763ffffffff1660e01b8152600401610b6b96959493929190611b11565b600060405180830381600087803b158015610b8557600080fd5b505af1158015610b99573d6000803e3d6000fd5b505050505050505050565b600260009054906101000a900473ffffffffffffffffffffffffffffffffffffffff1681565b600160009054906101000a900473ffffffffffffffffffffffffffffffffffffffff1681565b600360009054906101000a900473ffffffffffffffffffffffffffffffffffffffff1681565b6000604051905090565b600080fd5b600080fd5b600073ffffffffffffffffffffffffffffffffffffffff82169050919050565b6000610c5582610c2a565b9050919050565b610c6581610c4a565b8114610c7057600080fd5b50565b600081359050610c8281610c5c565b92915050565b600060208284031215610c9e57610c9d610c20565b5b6000610cac84828501610c73565b91505092915050565b6000819050919050565b6000610cda610cd5610cd084610c2a565b610cb5565b610c2a565b9050919050565b6000610cec82610cbf565b9050919050565b6000610cfe82610ce1565b9050919050565b610d0e81610cf3565b82525050565b6000602082019050610d296000830184610d05565b92915050565b600080fd5b600080fd5b6000601f19601f8301169050919050565b7f4e487b7100000000000000000000000000000000000000000000000000000000600052604160045260246000fd5b610d8282610d39565b810181811067ffffffffffffffff82111715610da157610da0610d4a565b5b80604052505050565b6000610db4610c16565b9050610dc08282610d79565b919050565b600067ffffffffffffffff821115610de057610ddf610d4a565b5b610de982610d39565b9050602081019050919050565b82818337600083830152505050565b6000610e18610e1384610dc5565b610daa565b905082815260208101848484011115610e3457610e33610d34565b5b610e3f848285610df6565b509392505050565b600082601f830112610e5c57610e5b610d2f565b5b8135610e6c848260208601610e05565b91505092915050565b60008060008060808587031215610e8f57610e8e610c20565b5b600085013567ffffffffffffffff811115610ead57610eac610c25565b5b610eb987828801610e47565b945050602085013567ffffffffffffffff811115610eda57610ed9610c25565b5b610ee687828801610e47565b935050604085013567ffffffffffffffff811115610f0757610f06610c25565b5b610f1387828801610e47565b925050606085013567ffffffffffffffff811115610f3457610f33610c25565b5b610f4087828801610e47565b91505092959194509250565b610f5581610c4a565b82525050565b6000602082019050610f706000830184610f4c565b92915050565b6000819050919050565b610f8981610f76565b8114610f9457600080fd5b50565b600081359050610fa681610f80565b92915050565b60008060008060808587031215610fc657610fc5610c20565b5b600085013567ffffffffffffffff811115610fe457610fe3610c25565b5b610ff087828801610e47565b945050602085013567ffffffffffffffff81111561101157611010610c25565b5b61101d87828801610e47565b935050604085013567ffffffffffffffff81111561103e5761103d610c25565b5b61104a87828801610e47565b925050606061105b87828801610f97565b91505092959194509250565b60008115159050919050565b61107c81611067565b811461108757600080fd5b50565b60008135905061109981611073565b92915050565b600080604083850312156110b6576110b5610c20565b5b60006110c485828601610f97565b92505060206110d58582860161108a565b9150509250929050565b600080600080600060a086880312156110fb576110fa610c20565b5b600061110988828901610c73565b955050602086013567ffffffffffffffff81111561112a57611129610c25565b5b61113688828901610e47565b945050604086013567ffffffffffffffff81111561115757611156610c25565b5b61116388828901610e47565b935050606086013567ffffffffffffffff81111561118457611183610c25565b5b61119088828901610e47565b92505060806111a188828901610f97565b9150509295509295909350565b60006111b982610ce1565b9050919050565b6111c9816111ae565b82525050565b60006020820190506111e460008301846111c0565b92915050565b60006111f582610ce1565b9050919050565b611205816111ea565b82525050565b600060208201905061122060008301846111fc565b92915050565b600061123182610ce1565b9050919050565b61124181611226565b82525050565b600060208201905061125c6000830184611238565b92915050565b60006040820190506112776000830185610f4c565b6112846020830184610f4c565b9392505050565b600082825260208201905092915050565b7f43616c6c6572206973206e6f7420746865206f776e6572000000000000000000600082015250565b60006112d260178361128b565b91506112dd8261129c565b602082019050919050565b60006020820190508181036000830152611301816112c5565b9050919050565b600067ffffffffffffffff82111561132357611322610d4a565b5b602082029050602081019050919050565b600080fd5b60008151905061134881610f80565b92915050565b600061136161135c84611308565b610daa565b9050808382526020820190506020840283018581111561138457611383611334565b5b835b818110156113ad57806113998882611339565b845260208401935050602081019050611386565b5050509392505050565b600082601f8301126113cc576113cb610d2f565b5b81516113dc84826020860161134e565b91505092915050565b6000602082840312156113fb576113fa610c20565b5b600082015167ffffffffffffffff81111561141957611418610c25565b5b611425848285016113b7565b91505092915050565b7f4e656e68756d612070726f6d6573736120666f692070726f6365737361646100600082015250565b6000611464601f8361128b565b915061146f8261142e565b602082019050919050565b6000602082019050818103600083015261149381611457565b9050919050565b600081519050919050565b600082825260208201905092915050565b6000819050602082019050919050565b6114cf81610f76565b82525050565b60006114e183836114c6565b60208301905092915050565b6000602082019050919050565b60006115058261149a565b61150f81856114a5565b935061151a836114b6565b8060005b8381101561154b57815161153288826114d5565b975061153d836114ed565b92505060018101905061151e565b5085935050505092915050565b6000602082019050818103600083015261157281846114fa565b905092915050565b600067ffffffffffffffff82111561159557611594610d4a565b5b602082029050602081019050919050565b6000815190506115b581610c5c565b92915050565b60006115ce6115c98461157a565b610daa565b905080838252602082019050602084028301858111156115f1576115f0611334565b5b835b8181101561161a578061160688826115a6565b8452602084019350506020810190506115f3565b5050509392505050565b600082601f83011261163957611638610d2f565b5b81516116498482602086016115bb565b91505092915050565b60006020828403121561166857611667610c20565b5b600082015167ffffffffffffffff81111561168657611685610c25565b5b61169284828501611624565b91505092915050565b7f4e656e68756d20706f6c697469636f2070617261207072656d69617200000000600082015250565b60006116d1601c8361128b565b91506116dc8261169b565b602082019050919050565b60006020820190508181036000830152611700816116c4565b9050919050565b600081519050919050565b600082825260208201905092915050565b6000819050602082019050919050565b61173c81610c4a565b82525050565b600061174e8383611733565b60208301905092915050565b6000602082019050919050565b600061177282611707565b61177c8185611712565b935061178783611723565b8060005b838110156117b857815161179f8882611742565b97506117aa8361175a565b92505060018101905061178b565b5085935050505092915050565b6000819050919050565b60006117ea6117e56117e0846117c5565b610cb5565b610f76565b9050919050565b6117fa816117cf565b82525050565b6000604082019050818103600083015261181a8185611767565b905061182960208301846117f1565b9392505050565b7f4e487b7100000000000000000000000000000000000000000000000000000000600052603260045260246000fd5b61186881610f76565b82525050565b6000602082019050611883600083018461185f565b92915050565b60008151905061189881611073565b92915050565b6000602082840312156118b4576118b3610c20565b5b60006118c284828501611889565b91505092915050565b6118d481611067565b82525050565b60006040820190506118ef600083018561185f565b6118fc60208301846118cb565b9392505050565b7f4e656e68756d20656c6569746f7220766f746f7520636f72726574616d656e7460008201527f6500000000000000000000000000000000000000000000000000000000000000602082015250565b600061195f60218361128b565b915061196a82611903565b604082019050919050565b6000602082019050818103600083015261198e81611952565b9050919050565b600081519050919050565b60005b838110156119be5780820151818401526020810190506119a3565b60008484015250505050565b60006119d582611995565b6119df818561128b565b93506119ef8185602086016119a0565b6119f881610d39565b840191505092915050565b600060a082019050611a186000830188610f4c565b8181036020830152611a2a81876119ca565b90508181036040830152611a3e81866119ca565b90508181036060830152611a5281856119ca565b90508181036080830152611a6681846119ca565b90509695505050505050565b600060a082019050611a876000830188610f4c565b8181036020830152611a9981876119ca565b90508181036040830152611aad81866119ca565b90508181036060830152611ac181856119ca565b9050611ad0608083018461185f565b9695505050505050565b6000606082019050611aef6000830186610f4c565b611afc602083018561185f565b611b0960408301846118cb565b949350505050565b600060c082019050611b266000830189610f4c565b611b336020830188610f4c565b8181036040830152611b4581876119ca565b90508181036060830152611b5981866119ca565b90508181036080830152611b6d81856119ca565b9050611b7c60a083018461185f565b97965050505050505056fea26469706673582212203c309b7b0ddb793778c3ed7c799b7f8e0e97efc4a8c7756e28ec660a15ae249164736f6c634300081c0033",
  "linkReferences": {},
  "deployedLinkReferences": {}
}