{
  "_format": "hh-sol-artifact-1",
  "contractName": "ClaimContract",
  "sourceName": "contracts/Claim.sol",
  "abi": [
    {
      "inputs": [],
      "stateMutability": "nonpayable",
      "type": "constructor"
    },
    {
      "inputs": [],
      "name": "_owner",
      "outputs": [
        {
          "internalType": "address",
          "name": "",
          "type": "address"
        }
      ],
      "stateMutability": "view",
      "type": "function"
    },
    {
      "inputs": [
        {
          "internalType": "uint256",
          "name": "",
          "type": "uint256"
        }
      ],
      "name": "claims",
      "outputs": [
        {
          "internalType": "uint256",
          "name": "id",
          "type": "uint256"
        },
        {
          "internalType": "address",
          "name": "author",
          "type": "address"
        },
        {
          "internalType": "address",
          "name": "toPolitician",
          "type": "address"
        },
        {
          "internalType": "string",
          "name": "title",
          "type": "string"
        },
        {
          "internalType": "string",
          "name": "description",
          "type": "string"
        },
        {
          "internalType": "string",
          "name": "coverPictureURI",
          "type": "string"
        },
        {
          "internalType": "enum ClaimContract.ClaimStatus",
          "name": "status",
          "type": "uint8"
        },
        {
          "internalType": "uint256",
          "name": "createdAt",
          "type": "uint256"
        },
        {
          "internalType": "uint256",
          "name": "updatedAt",
          "type": "uint256"
        },
        {
          "internalType": "uint256",
          "name": "investment",
          "type": "uint256"
        }
      ],
      "stateMutability": "view",
      "type": "function"
    },
    {
      "inputs": [
        {
          "internalType": "address",
          "name": "author",
          "type": "address"
        },
        {
          "internalType": "address",
          "name": "toPolitician",
          "type": "address"
        },
        {
          "internalType": "string",
          "name": "_title",
          "type": "string"
        },
        {
          "internalType": "string",
          "name": "_description",
          "type": "string"
        },
        {
          "internalType": "string",
          "name": "_coverPictureURI",
          "type": "string"
        },
        {
          "internalType": "uint256",
          "name": "_investment",
          "type": "uint256"
        }
      ],
      "name": "createClaim",
      "outputs": [],
      "stateMutability": "nonpayable",
      "type": "function"
    },
    {
      "inputs": [],
      "name": "getClaims",
      "outputs": [
        {
          "components": [
            {
              "internalType": "uint256",
              "name": "id",
              "type": "uint256"
            },
            {
              "internalType": "address",
              "name": "author",
              "type": "address"
            },
            {
              "internalType": "address",
              "name": "toPolitician",
              "type": "address"
            },
            {
              "internalType": "string",
              "name": "title",
              "type": "string"
            },
            {
              "internalType": "string",
              "name": "description",
              "type": "string"
            },
            {
              "internalType": "string",
              "name": "coverPictureURI",
              "type": "string"
            },
            {
              "internalType": "enum ClaimContract.ClaimStatus",
              "name": "status",
              "type": "uint8"
            },
            {
              "internalType": "uint256",
              "name": "createdAt",
              "type": "uint256"
            },
            {
              "internalType": "uint256",
              "name": "updatedAt",
              "type": "uint256"
            },
            {
              "internalType": "uint256",
              "name": "investment",
              "type": "uint256"
            }
          ],
          "internalType": "struct ClaimContract.Claim[]",
          "name": "",
          "type": "tuple[]"
        }
      ],
      "stateMutability": "view",
      "type": "function"
    },
    {
      "inputs": [
        {
          "internalType": "uint256",
          "name": "_claimId",
          "type": "uint256"
        },
        {
          "internalType": "uint256",
          "name": "_investment",
          "type": "uint256"
        }
      ],
      "name": "investClaim",
      "outputs": [],
      "stateMutability": "nonpayable",
      "type": "function"
    },
    {
      "inputs": [
        {
          "internalType": "address",
          "name": "_PAGAContractAddress",
          "type": "address"
        }
      ],
      "name": "setPagaContract",
      "outputs": [],
      "stateMutability": "nonpayable",
      "type": "function"
    }
  ],
  "bytecode": "0x6080604052348015600f57600080fd5b50336000806101000a81548173ffffffffffffffffffffffffffffffffffffffff021916908373ffffffffffffffffffffffffffffffffffffffff1602179055506118728061005f6000396000f3fe608060405234801561001057600080fd5b50600436106100625760003560e01c80630ca3d94d146100675780639089ea2d14610083578063a888c2cd1461009f578063b2bdfa7b146100d8578063c4a6147b146100f6578063c52822f814610112575b600080fd5b610081600480360381019061007c9190610bb4565b610130565b005b61009d60048036038101906100989190610d98565b61028a565b005b6100b960048036038101906100b49190610e79565b610503565b6040516100cf9a99989796959493929190610fba565b60405180910390f35b6100e061074c565b6040516100ed919061106b565b60405180910390f35b610110600480360381019061010b9190611086565b610770565b005b61011a610845565b60405161012791906112d4565b60405180910390f35b600160009054906101000a900473ffffffffffffffffffffffffffffffffffffffff1673ffffffffffffffffffffffffffffffffffffffff163373ffffffffffffffffffffffffffffffffffffffff16146101c0576040517f08c379a00000000000000000000000000000000000000000000000000000000081526004016101b790611342565b60405180910390fd5b6002805490508210610207576040517f08c379a00000000000000000000000000000000000000000000000000000000081526004016101fe906113ae565b60405180910390fd5b6000811161024a576040517f08c379a000000000000000000000000000000000000000000000000000000000815260040161024190611440565b60405180910390fd5b806002838154811061025f5761025e611460565b5b90600052602060002090600a0201600901600082825461027f91906114be565b925050819055505050565b600160009054906101000a900473ffffffffffffffffffffffffffffffffffffffff1673ffffffffffffffffffffffffffffffffffffffff163373ffffffffffffffffffffffffffffffffffffffff161461031a576040517f08c379a000000000000000000000000000000000000000000000000000000000815260040161031190611342565b60405180910390fd5b600260405180610140016040528060028054905081526020018873ffffffffffffffffffffffffffffffffffffffff1681526020018773ffffffffffffffffffffffffffffffffffffffff1681526020018681526020018581526020018481526020016000600381111561039157610390610f43565b5b81526020014281526020014281526020018381525090806001815401808255809150506001900390600052602060002090600a02016000909190919091506000820151816000015560208201518160010160006101000a81548173ffffffffffffffffffffffffffffffffffffffff021916908373ffffffffffffffffffffffffffffffffffffffff16021790555060408201518160020160006101000a81548173ffffffffffffffffffffffffffffffffffffffff021916908373ffffffffffffffffffffffffffffffffffffffff160217905550606082015181600301908161047c91906116fe565b50608082015181600401908161049291906116fe565b5060a08201518160050190816104a891906116fe565b5060c08201518160060160006101000a81548160ff021916908360038111156104d4576104d3610f43565b5b021790555060e08201518160070155610100820151816008015561012082015181600901555050505050505050565b6002818154811061051357600080fd5b90600052602060002090600a02016000915090508060000154908060010160009054906101000a900473ffffffffffffffffffffffffffffffffffffffff16908060020160009054906101000a900473ffffffffffffffffffffffffffffffffffffffff169080600301805461058890611521565b80601f01602080910402602001604051908101604052809291908181526020018280546105b490611521565b80156106015780601f106105d657610100808354040283529160200191610601565b820191906000526020600020905b8154815290600101906020018083116105e457829003601f168201915b50505050509080600401805461061690611521565b80601f016020809104026020016040519081016040528092919081815260200182805461064290611521565b801561068f5780601f106106645761010080835404028352916020019161068f565b820191906000526020600020905b81548152906001019060200180831161067257829003601f168201915b5050505050908060050180546106a490611521565b80601f01602080910402602001604051908101604052809291908181526020018280546106d090611521565b801561071d5780601f106106f25761010080835404028352916020019161071d565b820191906000526020600020905b81548152906001019060200180831161070057829003601f168201915b5050505050908060060160009054906101000a900460ff1690806007015490806008015490806009015490508a565b60008054906101000a900473ffffffffffffffffffffffffffffffffffffffff1681565b600073ffffffffffffffffffffffffffffffffffffffff16600160009054906101000a900473ffffffffffffffffffffffffffffffffffffffff1673ffffffffffffffffffffffffffffffffffffffff1614610801576040517f08c379a00000000000000000000000000000000000000000000000000000000081526004016107f89061181c565b60405180910390fd5b80600160006101000a81548173ffffffffffffffffffffffffffffffffffffffff021916908373ffffffffffffffffffffffffffffffffffffffff16021790555050565b60606002805480602002602001604051908101604052809291908181526020016000905b82821015610b6157838290600052602060002090600a020160405180610140016040529081600082015481526020016001820160009054906101000a900473ffffffffffffffffffffffffffffffffffffffff1673ffffffffffffffffffffffffffffffffffffffff1673ffffffffffffffffffffffffffffffffffffffff1681526020016002820160009054906101000a900473ffffffffffffffffffffffffffffffffffffffff1673ffffffffffffffffffffffffffffffffffffffff1673ffffffffffffffffffffffffffffffffffffffff16815260200160038201805461095390611521565b80601f016020809104026020016040519081016040528092919081815260200182805461097f90611521565b80156109cc5780601f106109a1576101008083540402835291602001916109cc565b820191906000526020600020905b8154815290600101906020018083116109af57829003601f168201915b505050505081526020016004820180546109e590611521565b80601f0160208091040260200160405190810160405280929190818152602001828054610a1190611521565b8015610a5e5780601f10610a3357610100808354040283529160200191610a5e565b820191906000526020600020905b815481529060010190602001808311610a4157829003601f168201915b50505050508152602001600582018054610a7790611521565b80601f0160208091040260200160405190810160405280929190818152602001828054610aa390611521565b8015610af05780601f10610ac557610100808354040283529160200191610af0565b820191906000526020600020905b815481529060010190602001808311610ad357829003601f168201915b505050505081526020016006820160009054906101000a900460ff166003811115610b1e57610b1d610f43565b5b6003811115610b3057610b2f610f43565b5b8152602001600782015481526020016008820154815260200160098201548152505081526020019060010190610869565b50505050905090565b6000604051905090565b600080fd5b600080fd5b6000819050919050565b610b9181610b7e565b8114610b9c57600080fd5b50565b600081359050610bae81610b88565b92915050565b60008060408385031215610bcb57610bca610b74565b5b6000610bd985828601610b9f565b9250506020610bea85828601610b9f565b9150509250929050565b600073ffffffffffffffffffffffffffffffffffffffff82169050919050565b6000610c1f82610bf4565b9050919050565b610c2f81610c14565b8114610c3a57600080fd5b50565b600081359050610c4c81610c26565b92915050565b600080fd5b600080fd5b6000601f19601f8301169050919050565b7f4e487b7100000000000000000000000000000000000000000000000000000000600052604160045260246000fd5b610ca582610c5c565b810181811067ffffffffffffffff82111715610cc457610cc3610c6d565b5b80604052505050565b6000610cd7610b6a565b9050610ce38282610c9c565b919050565b600067ffffffffffffffff821115610d0357610d02610c6d565b5b610d0c82610c5c565b9050602081019050919050565b82818337600083830152505050565b6000610d3b610d3684610ce8565b610ccd565b905082815260208101848484011115610d5757610d56610c57565b5b610d62848285610d19565b509392505050565b600082601f830112610d7f57610d7e610c52565b5b8135610d8f848260208601610d28565b91505092915050565b60008060008060008060c08789031215610db557610db4610b74565b5b6000610dc389828a01610c3d565b9650506020610dd489828a01610c3d565b955050604087013567ffffffffffffffff811115610df557610df4610b79565b5b610e0189828a01610d6a565b945050606087013567ffffffffffffffff811115610e2257610e21610b79565b5b610e2e89828a01610d6a565b935050608087013567ffffffffffffffff811115610e4f57610e4e610b79565b5b610e5b89828a01610d6a565b92505060a0610e6c89828a01610b9f565b9150509295509295509295565b600060208284031215610e8f57610e8e610b74565b5b6000610e9d84828501610b9f565b91505092915050565b610eaf81610b7e565b82525050565b610ebe81610c14565b82525050565b600081519050919050565b600082825260208201905092915050565b60005b83811015610efe578082015181840152602081019050610ee3565b60008484015250505050565b6000610f1582610ec4565b610f1f8185610ecf565b9350610f2f818560208601610ee0565b610f3881610c5c565b840191505092915050565b7f4e487b7100000000000000000000000000000000000000000000000000000000600052602160045260246000fd5b60048110610f8357610f82610f43565b5b50565b6000819050610f9482610f72565b919050565b6000610fa482610f86565b9050919050565b610fb481610f99565b82525050565b600061014082019050610fd0600083018d610ea6565b610fdd602083018c610eb5565b610fea604083018b610eb5565b8181036060830152610ffc818a610f0a565b905081810360808301526110108189610f0a565b905081810360a08301526110248188610f0a565b905061103360c0830187610fab565b61104060e0830186610ea6565b61104e610100830185610ea6565b61105c610120830184610ea6565b9b9a5050505050505050505050565b60006020820190506110806000830184610eb5565b92915050565b60006020828403121561109c5761109b610b74565b5b60006110aa84828501610c3d565b91505092915050565b600081519050919050565b600082825260208201905092915050565b6000819050602082019050919050565b6110e881610b7e565b82525050565b6110f781610c14565b82525050565b600082825260208201905092915050565b600061111982610ec4565b61112381856110fd565b9350611133818560208601610ee0565b61113c81610c5c565b840191505092915050565b61115081610f99565b82525050565b60006101408301600083015161116f60008601826110df565b50602083015161118260208601826110ee565b50604083015161119560408601826110ee565b50606083015184820360608601526111ad828261110e565b915050608083015184820360808601526111c7828261110e565b91505060a083015184820360a08601526111e1828261110e565b91505060c08301516111f660c0860182611147565b5060e083015161120960e08601826110df565b5061010083015161121e6101008601826110df565b506101208301516112336101208601826110df565b508091505092915050565b600061124a8383611156565b905092915050565b6000602082019050919050565b600061126a826110b3565b61127481856110be565b935083602082028501611286856110cf565b8060005b858110156112c257848403895281516112a3858261123e565b94506112ae83611252565b925060208a0199505060018101905061128a565b50829750879550505050505092915050565b600060208201905081810360008301526112ee818461125f565b905092915050565b7f43616c6c6572206973206e6f7420746865205041474120636f6e747261637400600082015250565b600061132c601f83610ecf565b9150611337826112f6565b602082019050919050565b6000602082019050818103600083015261135b8161131f565b9050919050565b7f436c61696d20646f6573206e6f74206578697374000000000000000000000000600082015250565b6000611398601483610ecf565b91506113a382611362565b602082019050919050565b600060208201905081810360008301526113c78161138b565b9050919050565b7f496e766573746d656e74206d7573742062652067726561746572207468616e2060008201527f7a65726f00000000000000000000000000000000000000000000000000000000602082015250565b600061142a602483610ecf565b9150611435826113ce565b604082019050919050565b600060208201905081810360008301526114598161141d565b9050919050565b7f4e487b7100000000000000000000000000000000000000000000000000000000600052603260045260246000fd5b7f4e487b7100000000000000000000000000000000000000000000000000000000600052601160045260246000fd5b60006114c982610b7e565b91506114d483610b7e565b92508282019050808211156114ec576114eb61148f565b5b92915050565b7f4e487b7100000000000000000000000000000000000000000000000000000000600052602260045260246000fd5b6000600282049050600182168061153957607f821691505b60208210810361154c5761154b6114f2565b5b50919050565b60008190508160005260206000209050919050565b60006020601f8301049050919050565b600082821b905092915050565b6000600883026115b47fffffffffffffffffffffffffffffffffffffffffffffffffffffffffffffffff82611577565b6115be8683611577565b95508019841693508086168417925050509392505050565b6000819050919050565b60006115fb6115f66115f184610b7e565b6115d6565b610b7e565b9050919050565b6000819050919050565b611615836115e0565b61162961162182611602565b848454611584565b825550505050565b600090565b61163e611631565b61164981848461160c565b505050565b5b8181101561166d57611662600082611636565b60018101905061164f565b5050565b601f8211156116b25761168381611552565b61168c84611567565b8101602085101561169b578190505b6116af6116a785611567565b83018261164e565b50505b505050565b600082821c905092915050565b60006116d5600019846008026116b7565b1980831691505092915050565b60006116ee83836116c4565b9150826002028217905092915050565b61170782610ec4565b67ffffffffffffffff8111156117205761171f610c6d565b5b61172a8254611521565b611735828285611671565b600060209050601f8311600181146117685760008415611756578287015190505b61176085826116e2565b8655506117c8565b601f19841661177686611552565b60005b8281101561179e57848901518255600182019150602085019450602081019050611779565b868310156117bb57848901516117b7601f8916826116c4565b8355505b6001600288020188555050505b505050505050565b7f5041474120636f6e747261637420616c72656164792073657400000000000000600082015250565b6000611806601983610ecf565b9150611811826117d0565b602082019050919050565b60006020820190508181036000830152611835816117f9565b905091905056fea264697066735822122096ef0e8e1c93cd6e4ee71e35ad105d6d6f34d5f99a3f307a06156c19ca7c269264736f6c634300081c0033",
  "linkReferences": {},
  "deployedLinkReferences": {}
}