{
  "_format": "hh-sol-artifact-1",
  "contractName": "Politician",
  "sourceName": "contracts/Politician.sol",
  "abi": [
    {
      "inputs": [],
      "stateMutability": "nonpayable",
      "type": "constructor"
    },
    {
      "anonymous": false,
      "inputs": [
        {
          "indexed": true,
          "internalType": "address",
          "name": "PoliticianAddress",
          "type": "address"
        },
        {
          "indexed": false,
          "internalType": "string",
          "name": "name",
          "type": "string"
        }
      ],
      "name": "PoliticianCreated",
      "type": "event"
    },
    {
      "anonymous": false,
      "inputs": [
        {
          "indexed": true,
          "internalType": "address",
          "name": "PoliticianAddress",
          "type": "address"
        },
        {
          "indexed": false,
          "internalType": "string",
          "name": "name",
          "type": "string"
        }
      ],
      "name": "PoliticianUpdated",
      "type": "event"
    },
    {
      "inputs": [
        {
          "internalType": "uint256",
          "name": "",
          "type": "uint256"
        }
      ],
      "name": "PoliticianAddresses",
      "outputs": [
        {
          "internalType": "address",
          "name": "",
          "type": "address"
        }
      ],
      "stateMutability": "view",
      "type": "function"
    },
    {
      "inputs": [
        {
          "internalType": "address",
          "name": "",
          "type": "address"
        }
      ],
      "name": "Politicians",
      "outputs": [
        {
          "internalType": "address",
          "name": "addr",
          "type": "address"
        },
        {
          "internalType": "string",
          "name": "egovID",
          "type": "string"
        },
        {
          "internalType": "string",
          "name": "profilePictureURI",
          "type": "string"
        },
        {
          "internalType": "string",
          "name": "politicianParty",
          "type": "string"
        },
        {
          "internalType": "string",
          "name": "name",
          "type": "string"
        },
        {
          "internalType": "string",
          "name": "politicianRole",
          "type": "string"
        },
        {
          "internalType": "uint256",
          "name": "createdAt",
          "type": "uint256"
        },
        {
          "internalType": "uint256",
          "name": "updatedAt",
          "type": "uint256"
        },
        {
          "internalType": "bool",
          "name": "assigned",
          "type": "bool"
        },
        {
          "internalType": "uint256",
          "name": "balances",
          "type": "uint256"
        }
      ],
      "stateMutability": "view",
      "type": "function"
    },
    {
      "inputs": [
        {
          "internalType": "address",
          "name": "_politicianAddress",
          "type": "address"
        },
        {
          "internalType": "string",
          "name": "_profilePictureURI",
          "type": "string"
        },
        {
          "internalType": "string",
          "name": "_politicianParty",
          "type": "string"
        },
        {
          "internalType": "string",
          "name": "_name",
          "type": "string"
        },
        {
          "internalType": "string",
          "name": "_politicianRole",
          "type": "string"
        }
      ],
      "name": "createPolitician",
      "outputs": [],
      "stateMutability": "nonpayable",
      "type": "function"
    },
    {
      "inputs": [],
      "name": "getAllPoliticians",
      "outputs": [
        {
          "components": [
            {
              "internalType": "address",
              "name": "addr",
              "type": "address"
            },
            {
              "internalType": "string",
              "name": "egovID",
              "type": "string"
            },
            {
              "internalType": "string",
              "name": "profilePictureURI",
              "type": "string"
            },
            {
              "internalType": "string",
              "name": "politicianParty",
              "type": "string"
            },
            {
              "internalType": "string",
              "name": "name",
              "type": "string"
            },
            {
              "internalType": "string",
              "name": "politicianRole",
              "type": "string"
            },
            {
              "internalType": "uint256",
              "name": "createdAt",
              "type": "uint256"
            },
            {
              "internalType": "uint256",
              "name": "updatedAt",
              "type": "uint256"
            },
            {
              "internalType": "bool",
              "name": "assigned",
              "type": "bool"
            },
            {
              "internalType": "uint256",
              "name": "balances",
              "type": "uint256"
            }
          ],
          "internalType": "struct Politician.PoliticianData[]",
          "name": "",
          "type": "tuple[]"
        }
      ],
      "stateMutability": "view",
      "type": "function"
    },
    {
      "inputs": [
        {
          "internalType": "address",
          "name": "_address",
          "type": "address"
        }
      ],
      "name": "getPolitician",
      "outputs": [
        {
          "components": [
            {
              "internalType": "address",
              "name": "addr",
              "type": "address"
            },
            {
              "internalType": "string",
              "name": "egovID",
              "type": "string"
            },
            {
              "internalType": "string",
              "name": "profilePictureURI",
              "type": "string"
            },
            {
              "internalType": "string",
              "name": "politicianParty",
              "type": "string"
            },
            {
              "internalType": "string",
              "name": "name",
              "type": "string"
            },
            {
              "internalType": "string",
              "name": "politicianRole",
              "type": "string"
            },
            {
              "internalType": "uint256",
              "name": "createdAt",
              "type": "uint256"
            },
            {
              "internalType": "uint256",
              "name": "updatedAt",
              "type": "uint256"
            },
            {
              "internalType": "bool",
              "name": "assigned",
              "type": "bool"
            },
            {
              "internalType": "uint256",
              "name": "balances",
              "type": "uint256"
            }
          ],
          "internalType": "struct Politician.PoliticianData",
          "name": "",
          "type": "tuple"
        }
      ],
      "stateMutability": "view",
      "type": "function"
    },
    {
      "inputs": [
        {
          "internalType": "address",
          "name": "_politician",
          "type": "address"
        }
      ],
      "name": "increaseBalance",
      "outputs": [],
      "stateMutability": "nonpayable",
      "type": "function"
    },
    {
      "inputs": [
        {
          "internalType": "address[]",
          "name": "_politician",
          "type": "address[]"
        },
        {
          "internalType": "uint256",
          "name": "_amount",
          "type": "uint256"
        }
      ],
      "name": "increaseBalances",
      "outputs": [],
      "stateMutability": "nonpayable",
      "type": "function"
    },
    {
      "inputs": [
        {
          "internalType": "address",
          "name": "_PAGAContractAddress",
          "type": "address"
        }
      ],
      "name": "setPagaContract",
      "outputs": [],
      "stateMutability": "nonpayable",
      "type": "function"
    },
    {
      "inputs": [
        {
          "internalType": "address",
          "name": "_address",
          "type": "address"
        },
        {
          "internalType": "string",
          "name": "_profilePictureURI",
          "type": "string"
        },
        {
          "internalType": "string",
          "name": "_politicianParty",
          "type": "string"
        },
        {
          "internalType": "string",
          "name": "_name",
          "type": "string"
        },
        {
          "internalType": "string",
          "name": "_politicianRole",
          "type": "string"
        }
      ],
      "name": "updatePolitician",
      "outputs": [],
      "stateMutability": "nonpayable",
      "type": "function"
    }
  ],
  "bytecode": "0x6080604052348015600f57600080fd5b50336000806101000a81548173ffffffffffffffffffffffffffffffffffffffff021916908373ffffffffffffffffffffffffffffffffffffffff1602179055506126e98061005f6000396000f3fe608060405234801561001057600080fd5b50600436106100935760003560e01c80635b866c6f116100665780635b866c6f1461011e5780637eae2d941461013a578063c4a6147b14610173578063e1472d881461018f578063e6f3c944146101ab57610093565b806307a9217114610098578063384004ea146100b45780635659d682146100d25780635ad4cc82146100ee575b600080fd5b6100b260048036038101906100ad9190611945565b6101db565b005b6100bc610425565b6040516100c99190611caa565b60405180910390f35b6100ec60048036038101906100e79190611dc0565b61094a565b005b61010860048036038101906101039190611e1c565b610a6b565b6040516101159190611e58565b60405180910390f35b61013860048036038101906101339190611945565b610aaa565b005b610154600480360381019061014f9190611e73565b610e05565b60405161016a9a99989796959493929190611f08565b60405180910390f35b61018d60048036038101906101889190611e73565b61112e565b005b6101a960048036038101906101a49190611e73565b611203565b005b6101c560048036038101906101c09190611e73565b6112f0565b6040516101d291906120bd565b60405180910390f35b8473ffffffffffffffffffffffffffffffffffffffff163373ffffffffffffffffffffffffffffffffffffffff1614610249576040517f08c379a000000000000000000000000000000000000000000000000000000000815260040161024090612151565b60405180910390fd5b83600260008773ffffffffffffffffffffffffffffffffffffffff1673ffffffffffffffffffffffffffffffffffffffff1681526020019081526020016000206002019081610298919061237d565b5082600260008773ffffffffffffffffffffffffffffffffffffffff1673ffffffffffffffffffffffffffffffffffffffff16815260200190815260200160002060030190816102e8919061237d565b5081600260008773ffffffffffffffffffffffffffffffffffffffff1673ffffffffffffffffffffffffffffffffffffffff1681526020019081526020016000206004019081610338919061237d565b5080600260008773ffffffffffffffffffffffffffffffffffffffff1673ffffffffffffffffffffffffffffffffffffffff1681526020019081526020016000206005019081610388919061237d565b5042600260008773ffffffffffffffffffffffffffffffffffffffff1673ffffffffffffffffffffffffffffffffffffffff168152602001908152602001600020600701819055508473ffffffffffffffffffffffffffffffffffffffff167f89ab3c0ca824b93801dfb19a1457952e2afc6e228c862cf4a90497c2143f3ebf83604051610416919061244f565b60405180910390a25050505050565b6060600160009054906101000a900473ffffffffffffffffffffffffffffffffffffffff1673ffffffffffffffffffffffffffffffffffffffff163373ffffffffffffffffffffffffffffffffffffffff16146104b7576040517f08c379a00000000000000000000000000000000000000000000000000000000081526004016104ae906124bd565b60405180910390fd5b6000600380549050905060008167ffffffffffffffff8111156104dd576104dc61181a565b5b60405190808252806020026020018201604052801561051657816020015b610503611722565b8152602001906001900390816104fb5790505b50905060005b8281101561094157600260006003838154811061053c5761053b6124dd565b5b9060005260206000200160009054906101000a900473ffffffffffffffffffffffffffffffffffffffff1673ffffffffffffffffffffffffffffffffffffffff1673ffffffffffffffffffffffffffffffffffffffff168152602001908152602001600020604051806101400160405290816000820160009054906101000a900473ffffffffffffffffffffffffffffffffffffffff1673ffffffffffffffffffffffffffffffffffffffff1673ffffffffffffffffffffffffffffffffffffffff168152602001600182018054610613906121a0565b80601f016020809104026020016040519081016040528092919081815260200182805461063f906121a0565b801561068c5780601f106106615761010080835404028352916020019161068c565b820191906000526020600020905b81548152906001019060200180831161066f57829003601f168201915b505050505081526020016002820180546106a5906121a0565b80601f01602080910402602001604051908101604052809291908181526020018280546106d1906121a0565b801561071e5780601f106106f35761010080835404028352916020019161071e565b820191906000526020600020905b81548152906001019060200180831161070157829003601f168201915b50505050508152602001600382018054610737906121a0565b80601f0160208091040260200160405190810160405280929190818152602001828054610763906121a0565b80156107b05780601f10610785576101008083540402835291602001916107b0565b820191906000526020600020905b81548152906001019060200180831161079357829003601f168201915b505050505081526020016004820180546107c9906121a0565b80601f01602080910402602001604051908101604052809291908181526020018280546107f5906121a0565b80156108425780601f1061081757610100808354040283529160200191610842565b820191906000526020600020905b81548152906001019060200180831161082557829003601f168201915b5050505050815260200160058201805461085b906121a0565b80601f0160208091040260200160405190810160405280929190818152602001828054610887906121a0565b80156108d45780601f106108a9576101008083540402835291602001916108d4565b820191906000526020600020905b8154815290600101906020018083116108b757829003601f168201915b5050505050815260200160068201548152602001600782015481526020016008820160009054906101000a900460ff16151515158152602001600982015481525050828281518110610929576109286124dd565b5b6020026020010181905250808060010191505061051c565b50809250505090565b600160009054906101000a900473ffffffffffffffffffffffffffffffffffffffff1673ffffffffffffffffffffffffffffffffffffffff163373ffffffffffffffffffffffffffffffffffffffff16146109da576040517f08c379a00000000000000000000000000000000000000000000000000000000081526004016109d1906124bd565b60405180910390fd5b60005b8251811015610a665781600260008584815181106109fe576109fd6124dd565b5b602002602001015173ffffffffffffffffffffffffffffffffffffffff1673ffffffffffffffffffffffffffffffffffffffff1681526020019081526020016000206009016000828254610a52919061253b565b9250508190555080806001019150506109dd565b505050565b60038181548110610a7b57600080fd5b906000526020600020016000915054906101000a900473ffffffffffffffffffffffffffffffffffffffff1681565b600073ffffffffffffffffffffffffffffffffffffffff16600260008773ffffffffffffffffffffffffffffffffffffffff1673ffffffffffffffffffffffffffffffffffffffff16815260200190815260200160002060000160009054906101000a900473ffffffffffffffffffffffffffffffffffffffff1673ffffffffffffffffffffffffffffffffffffffff1614610b7b576040517f08c379a0000000000000000000000000000000000000000000000000000000008152600401610b72906125bb565b60405180910390fd5b60006040518061014001604052808773ffffffffffffffffffffffffffffffffffffffff1681526020016040518060400160405280600681526020017f65676f764944000000000000000000000000000000000000000000000000000081525081526020018681526020018581526020018481526020018381526020014281526020014281526020016001151581526020016000815250905080600260008873ffffffffffffffffffffffffffffffffffffffff1673ffffffffffffffffffffffffffffffffffffffff16815260200190815260200160002060008201518160000160006101000a81548173ffffffffffffffffffffffffffffffffffffffff021916908373ffffffffffffffffffffffffffffffffffffffff1602179055506020820151816001019081610cb0919061237d565b506040820151816002019081610cc6919061237d565b506060820151816003019081610cdc919061237d565b506080820151816004019081610cf2919061237d565b5060a0820151816005019081610d08919061237d565b5060c0820151816006015560e082015181600701556101008201518160080160006101000a81548160ff02191690831515021790555061012082015181600901559050506003869080600181540180825580915050600190039060005260206000200160009091909190916101000a81548173ffffffffffffffffffffffffffffffffffffffff021916908373ffffffffffffffffffffffffffffffffffffffff1602179055508573ffffffffffffffffffffffffffffffffffffffff167ff74d29db20591660556bd490f2b7286856080de76edc0625fae39c69f4a025ad84604051610df5919061244f565b60405180910390a2505050505050565b60026020528060005260406000206000915090508060000160009054906101000a900473ffffffffffffffffffffffffffffffffffffffff1690806001018054610e4e906121a0565b80601f0160208091040260200160405190810160405280929190818152602001828054610e7a906121a0565b8015610ec75780601f10610e9c57610100808354040283529160200191610ec7565b820191906000526020600020905b815481529060010190602001808311610eaa57829003601f168201915b505050505090806002018054610edc906121a0565b80601f0160208091040260200160405190810160405280929190818152602001828054610f08906121a0565b8015610f555780601f10610f2a57610100808354040283529160200191610f55565b820191906000526020600020905b815481529060010190602001808311610f3857829003601f168201915b505050505090806003018054610f6a906121a0565b80601f0160208091040260200160405190810160405280929190818152602001828054610f96906121a0565b8015610fe35780601f10610fb857610100808354040283529160200191610fe3565b820191906000526020600020905b815481529060010190602001808311610fc657829003601f168201915b505050505090806004018054610ff8906121a0565b80601f0160208091040260200160405190810160405280929190818152602001828054611024906121a0565b80156110715780601f1061104657610100808354040283529160200191611071565b820191906000526020600020905b81548152906001019060200180831161105457829003601f168201915b505050505090806005018054611086906121a0565b80601f01602080910402602001604051908101604052809291908181526020018280546110b2906121a0565b80156110ff5780601f106110d4576101008083540402835291602001916110ff565b820191906000526020600020905b8154815290600101906020018083116110e257829003601f168201915b5050505050908060060154908060070154908060080160009054906101000a900460ff1690806009015490508a565b600073ffffffffffffffffffffffffffffffffffffffff16600160009054906101000a900473ffffffffffffffffffffffffffffffffffffffff1673ffffffffffffffffffffffffffffffffffffffff16146111bf576040517f08c379a00000000000000000000000000000000000000000000000000000000081526004016111b690612627565b60405180910390fd5b80600160006101000a81548173ffffffffffffffffffffffffffffffffffffffff021916908373ffffffffffffffffffffffffffffffffffffffff16021790555050565b600160009054906101000a900473ffffffffffffffffffffffffffffffffffffffff1673ffffffffffffffffffffffffffffffffffffffff163373ffffffffffffffffffffffffffffffffffffffff1614611293576040517f08c379a000000000000000000000000000000000000000000000000000000000815260040161128a906124bd565b60405180910390fd5b6001600260008373ffffffffffffffffffffffffffffffffffffffff1673ffffffffffffffffffffffffffffffffffffffff16815260200190815260200160002060090160008282546112e6919061253b565b9250508190555050565b6112f8611722565b600073ffffffffffffffffffffffffffffffffffffffff168273ffffffffffffffffffffffffffffffffffffffff1603611367576040517f08c379a000000000000000000000000000000000000000000000000000000000815260040161135e90612693565b60405180910390fd5b600260008373ffffffffffffffffffffffffffffffffffffffff1673ffffffffffffffffffffffffffffffffffffffff168152602001908152602001600020604051806101400160405290816000820160009054906101000a900473ffffffffffffffffffffffffffffffffffffffff1673ffffffffffffffffffffffffffffffffffffffff1673ffffffffffffffffffffffffffffffffffffffff168152602001600182018054611418906121a0565b80601f0160208091040260200160405190810160405280929190818152602001828054611444906121a0565b80156114915780601f1061146657610100808354040283529160200191611491565b820191906000526020600020905b81548152906001019060200180831161147457829003601f168201915b505050505081526020016002820180546114aa906121a0565b80601f01602080910402602001604051908101604052809291908181526020018280546114d6906121a0565b80156115235780601f106114f857610100808354040283529160200191611523565b820191906000526020600020905b81548152906001019060200180831161150657829003601f168201915b5050505050815260200160038201805461153c906121a0565b80601f0160208091040260200160405190810160405280929190818152602001828054611568906121a0565b80156115b55780601f1061158a576101008083540402835291602001916115b5565b820191906000526020600020905b81548152906001019060200180831161159857829003601f168201915b505050505081526020016004820180546115ce906121a0565b80601f01602080910402602001604051908101604052809291908181526020018280546115fa906121a0565b80156116475780601f1061161c57610100808354040283529160200191611647565b820191906000526020600020905b81548152906001019060200180831161162a57829003601f168201915b50505050508152602001600582018054611660906121a0565b80601f016020809104026020016040519081016040528092919081815260200182805461168c906121a0565b80156116d95780601f106116ae576101008083540402835291602001916116d9565b820191906000526020600020905b8154815290600101906020018083116116bc57829003601f168201915b5050505050815260200160068201548152602001600782015481526020016008820160009054906101000a900460ff161515151581526020016009820154815250509050919050565b604051806101400160405280600073ffffffffffffffffffffffffffffffffffffffff16815260200160608152602001606081526020016060815260200160608152602001606081526020016000815260200160008152602001600015158152602001600081525090565b6000604051905090565b600080fd5b600080fd5b600073ffffffffffffffffffffffffffffffffffffffff82169050919050565b60006117cc826117a1565b9050919050565b6117dc816117c1565b81146117e757600080fd5b50565b6000813590506117f9816117d3565b92915050565b600080fd5b600080fd5b6000601f19601f8301169050919050565b7f4e487b7100000000000000000000000000000000000000000000000000000000600052604160045260246000fd5b61185282611809565b810181811067ffffffffffffffff821117156118715761187061181a565b5b80604052505050565b600061188461178d565b90506118908282611849565b919050565b600067ffffffffffffffff8211156118b0576118af61181a565b5b6118b982611809565b9050602081019050919050565b82818337600083830152505050565b60006118e86118e384611895565b61187a565b90508281526020810184848401111561190457611903611804565b5b61190f8482856118c6565b509392505050565b600082601f83011261192c5761192b6117ff565b5b813561193c8482602086016118d5565b91505092915050565b600080600080600060a0868803121561196157611960611797565b5b600061196f888289016117ea565b955050602086013567ffffffffffffffff8111156119905761198f61179c565b5b61199c88828901611917565b945050604086013567ffffffffffffffff8111156119bd576119bc61179c565b5b6119c988828901611917565b935050606086013567ffffffffffffffff8111156119ea576119e961179c565b5b6119f688828901611917565b925050608086013567ffffffffffffffff811115611a1757611a1661179c565b5b611a2388828901611917565b9150509295509295909350565b600081519050919050565b600082825260208201905092915050565b6000819050602082019050919050565b611a65816117c1565b82525050565b600081519050919050565b600082825260208201905092915050565b60005b83811015611aa5578082015181840152602081019050611a8a565b60008484015250505050565b6000611abc82611a6b565b611ac68185611a76565b9350611ad6818560208601611a87565b611adf81611809565b840191505092915050565b6000819050919050565b611afd81611aea565b82525050565b60008115159050919050565b611b1881611b03565b82525050565b600061014083016000830151611b376000860182611a5c565b5060208301518482036020860152611b4f8282611ab1565b91505060408301518482036040860152611b698282611ab1565b91505060608301518482036060860152611b838282611ab1565b91505060808301518482036080860152611b9d8282611ab1565b91505060a083015184820360a0860152611bb78282611ab1565b91505060c0830151611bcc60c0860182611af4565b5060e0830151611bdf60e0860182611af4565b50610100830151611bf4610100860182611b0f565b50610120830151611c09610120860182611af4565b508091505092915050565b6000611c208383611b1e565b905092915050565b6000602082019050919050565b6000611c4082611a30565b611c4a8185611a3b565b935083602082028501611c5c85611a4c565b8060005b85811015611c985784840389528151611c798582611c14565b9450611c8483611c28565b925060208a01995050600181019050611c60565b50829750879550505050505092915050565b60006020820190508181036000830152611cc48184611c35565b905092915050565b600067ffffffffffffffff821115611ce757611ce661181a565b5b602082029050602081019050919050565b600080fd5b6000611d10611d0b84611ccc565b61187a565b90508083825260208201905060208402830185811115611d3357611d32611cf8565b5b835b81811015611d5c5780611d4888826117ea565b845260208401935050602081019050611d35565b5050509392505050565b600082601f830112611d7b57611d7a6117ff565b5b8135611d8b848260208601611cfd565b91505092915050565b611d9d81611aea565b8114611da857600080fd5b50565b600081359050611dba81611d94565b92915050565b60008060408385031215611dd757611dd6611797565b5b600083013567ffffffffffffffff811115611df557611df461179c565b5b611e0185828601611d66565b9250506020611e1285828601611dab565b9150509250929050565b600060208284031215611e3257611e31611797565b5b6000611e4084828501611dab565b91505092915050565b611e52816117c1565b82525050565b6000602082019050611e6d6000830184611e49565b92915050565b600060208284031215611e8957611e88611797565b5b6000611e97848285016117ea565b91505092915050565b600082825260208201905092915050565b6000611ebc82611a6b565b611ec68185611ea0565b9350611ed6818560208601611a87565b611edf81611809565b840191505092915050565b611ef381611aea565b82525050565b611f0281611b03565b82525050565b600061014082019050611f1e600083018d611e49565b8181036020830152611f30818c611eb1565b90508181036040830152611f44818b611eb1565b90508181036060830152611f58818a611eb1565b90508181036080830152611f6c8189611eb1565b905081810360a0830152611f808188611eb1565b9050611f8f60c0830187611eea565b611f9c60e0830186611eea565b611faa610100830185611ef9565b611fb8610120830184611eea565b9b9a5050505050505050505050565b600061014083016000830151611fe06000860182611a5c565b5060208301518482036020860152611ff88282611ab1565b915050604083015184820360408601526120128282611ab1565b9150506060830151848203606086015261202c8282611ab1565b915050608083015184820360808601526120468282611ab1565b91505060a083015184820360a08601526120608282611ab1565b91505060c083015161207560c0860182611af4565b5060e083015161208860e0860182611af4565b5061010083015161209d610100860182611b0f565b506101208301516120b2610120860182611af4565b508091505092915050565b600060208201905081810360008301526120d78184611fc7565b905092915050565b7f596f752063616e206f6e6c792075706461746520796f7572206f776e2070726f60008201527f66696c6500000000000000000000000000000000000000000000000000000000602082015250565b600061213b602483611ea0565b9150612146826120df565b604082019050919050565b6000602082019050818103600083015261216a8161212e565b9050919050565b7f4e487b7100000000000000000000000000000000000000000000000000000000600052602260045260246000fd5b600060028204905060018216806121b857607f821691505b6020821081036121cb576121ca612171565b5b50919050565b60008190508160005260206000209050919050565b60006020601f8301049050919050565b600082821b905092915050565b6000600883026122337fffffffffffffffffffffffffffffffffffffffffffffffffffffffffffffffff826121f6565b61223d86836121f6565b95508019841693508086168417925050509392505050565b6000819050919050565b600061227a61227561227084611aea565b612255565b611aea565b9050919050565b6000819050919050565b6122948361225f565b6122a86122a082612281565b848454612203565b825550505050565b600090565b6122bd6122b0565b6122c881848461228b565b505050565b5b818110156122ec576122e16000826122b5565b6001810190506122ce565b5050565b601f82111561233157612302816121d1565b61230b846121e6565b8101602085101561231a578190505b61232e612326856121e6565b8301826122cd565b50505b505050565b600082821c905092915050565b600061235460001984600802612336565b1980831691505092915050565b600061236d8383612343565b9150826002028217905092915050565b61238682611a6b565b67ffffffffffffffff81111561239f5761239e61181a565b5b6123a982546121a0565b6123b48282856122f0565b600060209050601f8311600181146123e757600084156123d5578287015190505b6123df8582612361565b865550612447565b601f1984166123f5866121d1565b60005b8281101561241d578489015182556001820191506020850194506020810190506123f8565b8683101561243a5784890151612436601f891682612343565b8355505b6001600288020188555050505b505050505050565b600060208201905081810360008301526124698184611eb1565b905092915050565b7f43616c6c6572206973206e6f7420746865205041474120636f6e747261637400600082015250565b60006124a7601f83611ea0565b91506124b282612471565b602082019050919050565b600060208201905081810360008301526124d68161249a565b9050919050565b7f4e487b7100000000000000000000000000000000000000000000000000000000600052603260045260246000fd5b7f4e487b7100000000000000000000000000000000000000000000000000000000600052601160045260246000fd5b600061254682611aea565b915061255183611aea565b92508282019050808211156125695761256861250c565b5b92915050565b7f506f6c6974696369616e20616c72656164792065786973747300000000000000600082015250565b60006125a5601983611ea0565b91506125b08261256f565b602082019050919050565b600060208201905081810360008301526125d481612598565b9050919050565b7f5041474120636f6e747261637420616c72656164792073657400000000000000600082015250565b6000612611601983611ea0565b915061261c826125db565b602082019050919050565b6000602082019050818103600083015261264081612604565b9050919050565b7f496e76616c696420616464726573730000000000000000000000000000000000600082015250565b600061267d600f83611ea0565b915061268882612647565b602082019050919050565b600060208201905081810360008301526126ac81612670565b905091905056fea264697066735822122047767528da7f2032647bd235bf09e388ac196bc5bb142e77d4c05a49374d759b64736f6c634300081c0033",
  "linkReferences": {},
  "deployedLinkReferences": {}
}