{
  "_format": "hh-sol-artifact-1",
  "contractName": "VoterContract",
  "sourceName": "contracts/Voter.sol",
  "abi": [
    {
      "inputs": [],
      "stateMutability": "nonpayable",
      "type": "constructor"
    },
    {
      "anonymous": false,
      "inputs": [],
      "name": "AllPoliticiansReset",
      "type": "event"
    },
    {
      "anonymous": false,
      "inputs": [
        {
          "indexed": true,
          "internalType": "address",
          "name": "voter",
          "type": "address"
        },
        {
          "indexed": false,
          "internalType": "string",
          "name": "description",
          "type": "string"
        },
        {
          "indexed": false,
          "internalType": "uint256",
          "name": "priority",
          "type": "uint256"
        }
      ],
      "name": "IssueReported",
      "type": "event"
    },
    {
      "anonymous": false,
      "inputs": [
        {
          "indexed": true,
          "internalType": "address",
          "name": "voter",
          "type": "address"
        },
        {
          "indexed": false,
          "internalType": "uint256",
          "name": "amount",
          "type": "uint256"
        }
      ],
      "name": "TokensAwarded",
      "type": "event"
    },
    {
      "anonymous": false,
      "inputs": [
        {
          "indexed": true,
          "internalType": "address",
          "name": "voter",
          "type": "address"
        },
        {
          "indexed": true,
          "internalType": "uint256",
          "name": "commitmentId",
          "type": "uint256"
        }
      ],
      "name": "VoteRecorded",
      "type": "event"
    },
    {
      "anonymous": false,
      "inputs": [
        {
          "indexed": true,
          "internalType": "address",
          "name": "voter",
          "type": "address"
        },
        {
          "indexed": true,
          "internalType": "address",
          "name": "politician",
          "type": "address"
        }
      ],
      "name": "VoterRegistered",
      "type": "event"
    },
    {
      "inputs": [],
      "name": "_owner",
      "outputs": [
        {
          "internalType": "address",
          "name": "",
          "type": "address"
        }
      ],
      "stateMutability": "view",
      "type": "function"
    },
    {
      "inputs": [
        {
          "internalType": "address",
          "name": "_address",
          "type": "address"
        }
      ],
      "name": "createVoter",
      "outputs": [],
      "stateMutability": "nonpayable",
      "type": "function"
    },
    {
      "inputs": [
        {
          "internalType": "address",
          "name": "_voter",
          "type": "address"
        },
        {
          "internalType": "uint256",
          "name": "_amount",
          "type": "uint256"
        }
      ],
      "name": "decreaseBalance",
      "outputs": [],
      "stateMutability": "nonpayable",
      "type": "function"
    },
    {
      "inputs": [
        {
          "internalType": "address[]",
          "name": "_voters",
          "type": "address[]"
        },
        {
          "internalType": "uint256",
          "name": "_amount",
          "type": "uint256"
        }
      ],
      "name": "increaseBalances",
      "outputs": [],
      "stateMutability": "nonpayable",
      "type": "function"
    },
    {
      "inputs": [
        {
          "internalType": "address",
          "name": "user",
          "type": "address"
        },
        {
          "internalType": "address",
          "name": "_politician",
          "type": "address"
        }
      ],
      "name": "registerVoter",
      "outputs": [],
      "stateMutability": "nonpayable",
      "type": "function"
    },
    {
      "inputs": [],
      "name": "resetAllChosenPoliticians",
      "outputs": [],
      "stateMutability": "nonpayable",
      "type": "function"
    },
    {
      "inputs": [
        {
          "internalType": "address",
          "name": "_PAGAContractAddress",
          "type": "address"
        }
      ],
      "name": "setPagaContract",
      "outputs": [],
      "stateMutability": "nonpayable",
      "type": "function"
    },
    {
      "inputs": [
        {
          "internalType": "address",
          "name": "voter",
          "type": "address"
        },
        {
          "internalType": "uint256",
          "name": "_commitmentId",
          "type": "uint256"
        },
        {
          "internalType": "bool",
          "name": "vote_for",
          "type": "bool"
        }
      ],
      "name": "voteOnCommitment",
      "outputs": [],
      "stateMutability": "nonpayable",
      "type": "function"
    },
    {
      "inputs": [
        {
          "internalType": "uint256",
          "name": "",
          "type": "uint256"
        }
      ],
      "name": "voterAddresses",
      "outputs": [
        {
          "internalType": "address",
          "name": "",
          "type": "address"
        }
      ],
      "stateMutability": "view",
      "type": "function"
    },
    {
      "inputs": [
        {
          "internalType": "address",
          "name": "",
          "type": "address"
        }
      ],
      "name": "voters",
      "outputs": [
        {
          "internalType": "address",
          "name": "voterAddress",
          "type": "address"
        },
        {
          "internalType": "address",
          "name": "chosenPolitician",
          "type": "address"
        },
        {
          "internalType": "uint256",
          "name": "balance",
          "type": "uint256"
        }
      ],
      "stateMutability": "view",
      "type": "function"
    }
  ],
  "bytecode": "0x6080604052348015600f57600080fd5b50336000806101000a81548173ffffffffffffffffffffffffffffffffffffffff021916908373ffffffffffffffffffffffffffffffffffffffff1602179055506116b48061005f6000396000f3fe608060405234801561001057600080fd5b506004361061009e5760003560e01c8063b5768b6411610066578063b5768b6414610135578063c4a6147b14610151578063cea7fa4e1461016d578063dd0e237314610189578063ff056949146101b95761009e565b8063166a3952146100a3578063259d8381146100bf5780635659d682146100c9578063a3ec138d146100e5578063b2bdfa7b14610117575b600080fd5b6100bd60048036038101906100b89190610f44565b6101d5565b005b6100c76104b2565b005b6100e360048036038101906100de9190611100565b61064c565b005b6100ff60048036038101906100fa9190610f44565b6107d6565b60405161010e9392919061117a565b60405180910390f35b61011f610840565b60405161012c91906111b1565b60405180910390f35b61014f600480360381019061014a91906111cc565b610864565b005b61016b60048036038101906101669190610f44565b610aec565b005b61018760048036038101906101829190611244565b610bc1565b005b6101a3600480360381019061019e9190611297565b610da6565b6040516101b091906111b1565b60405180910390f35b6101d360048036038101906101ce91906112c4565b610de5565b005b600073ffffffffffffffffffffffffffffffffffffffff16600260008373ffffffffffffffffffffffffffffffffffffffff1673ffffffffffffffffffffffffffffffffffffffff16815260200190815260200160002060000160009054906101000a900473ffffffffffffffffffffffffffffffffffffffff1673ffffffffffffffffffffffffffffffffffffffff16146102a6576040517f08c379a000000000000000000000000000000000000000000000000000000000815260040161029d90611361565b60405180910390fd5b80600260008373ffffffffffffffffffffffffffffffffffffffff1673ffffffffffffffffffffffffffffffffffffffff16815260200190815260200160002060000160006101000a81548173ffffffffffffffffffffffffffffffffffffffff021916908373ffffffffffffffffffffffffffffffffffffffff1602179055506000600260008373ffffffffffffffffffffffffffffffffffffffff1673ffffffffffffffffffffffffffffffffffffffff16815260200190815260200160002060010160006101000a81548173ffffffffffffffffffffffffffffffffffffffff021916908373ffffffffffffffffffffffffffffffffffffffff1602179055506000600260008373ffffffffffffffffffffffffffffffffffffffff1673ffffffffffffffffffffffffffffffffffffffff168152602001908152602001600020600201819055506003819080600181540180825580915050600190039060005260206000200160009091909190916101000a81548173ffffffffffffffffffffffffffffffffffffffff021916908373ffffffffffffffffffffffffffffffffffffffff160217905550600073ffffffffffffffffffffffffffffffffffffffff168173ffffffffffffffffffffffffffffffffffffffff167f76f495f538ae23446b46f9ea62c1a4d8a985e56002509d25fd87a6dbbcff75ab60405160405180910390a350565b60008054906101000a900473ffffffffffffffffffffffffffffffffffffffff1673ffffffffffffffffffffffffffffffffffffffff163373ffffffffffffffffffffffffffffffffffffffff1614610540576040517f08c379a0000000000000000000000000000000000000000000000000000000008152600401610537906113cd565b60405180910390fd5b60005b60038054905081101561061d576000600260006003848154811061056a576105696113ed565b5b9060005260206000200160009054906101000a900473ffffffffffffffffffffffffffffffffffffffff1673ffffffffffffffffffffffffffffffffffffffff1673ffffffffffffffffffffffffffffffffffffffff16815260200190815260200160002060010160006101000a81548173ffffffffffffffffffffffffffffffffffffffff021916908373ffffffffffffffffffffffffffffffffffffffff1602179055508080600101915050610543565b507f8649cd5c42e9dc9f86d2ca2798244e1d2a721b1269e61a0b20ad3d5474a17c0360405160405180910390a1565b600160009054906101000a900473ffffffffffffffffffffffffffffffffffffffff1673ffffffffffffffffffffffffffffffffffffffff163373ffffffffffffffffffffffffffffffffffffffff16146106dc576040517f08c379a00000000000000000000000000000000000000000000000000000000081526004016106d390611468565b60405180910390fd5b60005b8251811015610768578160026000858481518110610700576106ff6113ed565b5b602002602001015173ffffffffffffffffffffffffffffffffffffffff1673ffffffffffffffffffffffffffffffffffffffff168152602001908152602001600020600201600082825461075491906114b7565b9250508190555080806001019150506106df565b508160008151811061077d5761077c6113ed565b5b602002602001015173ffffffffffffffffffffffffffffffffffffffff167fca0c05bc2d37fa8afaa7b8200bb281ba49ac03bf601026fe5731564c2a662e8e826040516107ca91906114eb565b60405180910390a25050565b60026020528060005260406000206000915090508060000160009054906101000a900473ffffffffffffffffffffffffffffffffffffffff16908060010160009054906101000a900473ffffffffffffffffffffffffffffffffffffffff16908060020154905083565b60008054906101000a900473ffffffffffffffffffffffffffffffffffffffff1681565b600160009054906101000a900473ffffffffffffffffffffffffffffffffffffffff1673ffffffffffffffffffffffffffffffffffffffff163373ffffffffffffffffffffffffffffffffffffffff16146108f4576040517f08c379a00000000000000000000000000000000000000000000000000000000081526004016108eb90611468565b60405180910390fd5b600073ffffffffffffffffffffffffffffffffffffffff16600260008473ffffffffffffffffffffffffffffffffffffffff1673ffffffffffffffffffffffffffffffffffffffff16815260200190815260200160002060000160009054906101000a900473ffffffffffffffffffffffffffffffffffffffff1673ffffffffffffffffffffffffffffffffffffffff16146109c5576040517f08c379a00000000000000000000000000000000000000000000000000000000081526004016109bc90611552565b60405180910390fd5b80600260008473ffffffffffffffffffffffffffffffffffffffff1673ffffffffffffffffffffffffffffffffffffffff16815260200190815260200160002060010160006101000a81548173ffffffffffffffffffffffffffffffffffffffff021916908373ffffffffffffffffffffffffffffffffffffffff1602179055506000600260008473ffffffffffffffffffffffffffffffffffffffff1673ffffffffffffffffffffffffffffffffffffffff168152602001908152602001600020600201819055508073ffffffffffffffffffffffffffffffffffffffff168273ffffffffffffffffffffffffffffffffffffffff167f76f495f538ae23446b46f9ea62c1a4d8a985e56002509d25fd87a6dbbcff75ab60405160405180910390a35050565b600073ffffffffffffffffffffffffffffffffffffffff16600160009054906101000a900473ffffffffffffffffffffffffffffffffffffffff1673ffffffffffffffffffffffffffffffffffffffff1614610b7d576040517f08c379a0000000000000000000000000000000000000000000000000000000008152600401610b74906115be565b60405180910390fd5b80600160006101000a81548173ffffffffffffffffffffffffffffffffffffffff021916908373ffffffffffffffffffffffffffffffffffffffff16021790555050565b600160009054906101000a900473ffffffffffffffffffffffffffffffffffffffff1673ffffffffffffffffffffffffffffffffffffffff163373ffffffffffffffffffffffffffffffffffffffff1614610c51576040517f08c379a0000000000000000000000000000000000000000000000000000000008152600401610c4890611468565b60405180910390fd5b600260008473ffffffffffffffffffffffffffffffffffffffff1673ffffffffffffffffffffffffffffffffffffffff168152602001908152602001600020600301600083815260200190815260200160002060009054906101000a900460ff1615610cf2576040517f08c379a0000000000000000000000000000000000000000000000000000000008152600401610ce99061162a565b60405180910390fd5b80600260008573ffffffffffffffffffffffffffffffffffffffff1673ffffffffffffffffffffffffffffffffffffffff168152602001908152602001600020600301600084815260200190815260200160002060006101000a81548160ff021916908315150217905550818373ffffffffffffffffffffffffffffffffffffffff167f8526c3debc05fa47d452deff6098c92355df470ccfdaeaf2c357db45e4451a2c60405160405180910390a3505050565b60038181548110610db657600080fd5b906000526020600020016000915054906101000a900473ffffffffffffffffffffffffffffffffffffffff1681565b600160009054906101000a900473ffffffffffffffffffffffffffffffffffffffff1673ffffffffffffffffffffffffffffffffffffffff163373ffffffffffffffffffffffffffffffffffffffff1614610e75576040517f08c379a0000000000000000000000000000000000000000000000000000000008152600401610e6c90611468565b60405180910390fd5b80600260008473ffffffffffffffffffffffffffffffffffffffff1673ffffffffffffffffffffffffffffffffffffffff1681526020019081526020016000206002016000828254610ec7919061164a565b925050819055505050565b6000604051905090565b600080fd5b600080fd5b600073ffffffffffffffffffffffffffffffffffffffff82169050919050565b6000610f1182610ee6565b9050919050565b610f2181610f06565b8114610f2c57600080fd5b50565b600081359050610f3e81610f18565b92915050565b600060208284031215610f5a57610f59610edc565b5b6000610f6884828501610f2f565b91505092915050565b600080fd5b6000601f19601f8301169050919050565b7f4e487b7100000000000000000000000000000000000000000000000000000000600052604160045260246000fd5b610fbf82610f76565b810181811067ffffffffffffffff82111715610fde57610fdd610f87565b5b80604052505050565b6000610ff1610ed2565b9050610ffd8282610fb6565b919050565b600067ffffffffffffffff82111561101d5761101c610f87565b5b602082029050602081019050919050565b600080fd5b600061104661104184611002565b610fe7565b905080838252602082019050602084028301858111156110695761106861102e565b5b835b81811015611092578061107e8882610f2f565b84526020840193505060208101905061106b565b5050509392505050565b600082601f8301126110b1576110b0610f71565b5b81356110c1848260208601611033565b91505092915050565b6000819050919050565b6110dd816110ca565b81146110e857600080fd5b50565b6000813590506110fa816110d4565b92915050565b6000806040838503121561111757611116610edc565b5b600083013567ffffffffffffffff81111561113557611134610ee1565b5b6111418582860161109c565b9250506020611152858286016110eb565b9150509250929050565b61116581610f06565b82525050565b611174816110ca565b82525050565b600060608201905061118f600083018661115c565b61119c602083018561115c565b6111a9604083018461116b565b949350505050565b60006020820190506111c6600083018461115c565b92915050565b600080604083850312156111e3576111e2610edc565b5b60006111f185828601610f2f565b925050602061120285828601610f2f565b9150509250929050565b60008115159050919050565b6112218161120c565b811461122c57600080fd5b50565b60008135905061123e81611218565b92915050565b60008060006060848603121561125d5761125c610edc565b5b600061126b86828701610f2f565b935050602061127c868287016110eb565b925050604061128d8682870161122f565b9150509250925092565b6000602082840312156112ad576112ac610edc565b5b60006112bb848285016110eb565b91505092915050565b600080604083850312156112db576112da610edc565b5b60006112e985828601610f2f565b92505060206112fa858286016110eb565b9150509250929050565b600082825260208201905092915050565b7f566f74657220616c726561647920657869737473000000000000000000000000600082015250565b600061134b601483611304565b915061135682611315565b602082019050919050565b6000602082019050818103600083015261137a8161133e565b9050919050565b7f43616c6c6572206973206e6f7420746865206f776e6572000000000000000000600082015250565b60006113b7601783611304565b91506113c282611381565b602082019050919050565b600060208201905081810360008301526113e6816113aa565b9050919050565b7f4e487b7100000000000000000000000000000000000000000000000000000000600052603260045260246000fd5b7f43616c6c6572206973206e6f7420746865205041474120636f6e747261637400600082015250565b6000611452601f83611304565b915061145d8261141c565b602082019050919050565b6000602082019050818103600083015261148181611445565b9050919050565b7f4e487b7100000000000000000000000000000000000000000000000000000000600052601160045260246000fd5b60006114c2826110ca565b91506114cd836110ca565b92508282019050808211156114e5576114e4611488565b5b92915050565b6000602082019050611500600083018461116b565b92915050565b7f566f74657220616c726561647920726567697374657265640000000000000000600082015250565b600061153c601883611304565b915061154782611506565b602082019050919050565b6000602082019050818103600083015261156b8161152f565b9050919050565b7f5041474120636f6e747261637420616c72656164792073657400000000000000600082015250565b60006115a8601983611304565b91506115b382611572565b602082019050919050565b600060208201905081810360008301526115d78161159b565b9050919050565b7f416c726561647920766f746564206f6e207468697320636f6d6d69746d656e74600082015250565b6000611614602083611304565b915061161f826115de565b602082019050919050565b6000602082019050818103600083015261164381611607565b9050919050565b6000611655826110ca565b9150611660836110ca565b925082820390508181111561167857611677611488565b5b9291505056fea264697066735822122034a3b757778af0788f198b5a1cffdcef11051de22a967b587b7d19fa3b992e2864736f6c634300081c0033",
  "linkReferences": {},
  "deployedLinkReferences": {}
}